{
  "address": "0xa96AD7889ef29D4978e00B0cB31cD41F77bFD8A6",
  "abi": [
    {
      "inputs": [
        {
          "internalType": "contract IERC20",
          "name": "_token",
          "type": "address"
        }
      ],
      "stateMutability": "nonpayable",
      "type": "constructor"
    },
    {
      "anonymous": false,
      "inputs": [
        {
          "indexed": false,
          "internalType": "address",
          "name": "beneficiary",
          "type": "address"
        }
      ],
      "name": "BeneficiaryApproved",
      "type": "event"
    },
    {
      "anonymous": false,
      "inputs": [
        {
          "indexed": false,
          "internalType": "address",
          "name": "oldDrawee",
          "type": "address"
        },
        {
          "indexed": false,
          "internalType": "address",
          "name": "newDrawee",
          "type": "address"
        }
      ],
      "name": "DraweeRoleTransferred",
      "type": "event"
    },
    {
      "anonymous": false,
      "inputs": [
        {
          "indexed": true,
          "internalType": "address",
          "name": "previousOwner",
          "type": "address"
        },
        {
          "indexed": true,
          "internalType": "address",
          "name": "newOwner",
          "type": "address"
        }
      ],
      "name": "OwnershipTransferred",
      "type": "event"
    },
    {
      "anonymous": false,
      "inputs": [
        {
          "indexed": false,
          "internalType": "address",
          "name": "beneficiary",
          "type": "address"
        },
        {
          "indexed": false,
          "internalType": "uint256",
          "name": "amount",
          "type": "uint256"
        }
      ],
      "name": "TokensWithdrawn",
      "type": "event"
    },
    {
      "inputs": [
        {
          "internalType": "contract IBeneficiaryContract",
          "name": "_beneficiary",
          "type": "address"
        }
      ],
      "name": "approveBeneficiary",
      "outputs": [],
      "stateMutability": "nonpayable",
      "type": "function"
    },
    {
      "inputs": [
        {
          "internalType": "contract IBeneficiaryContract[]",
          "name": "beneficiaries",
          "type": "address[]"
        },
        {
          "internalType": "uint256[]",
          "name": "amounts",
          "type": "uint256[]"
        }
      ],
      "name": "batchedWithdraw",
      "outputs": [],
      "stateMutability": "nonpayable",
      "type": "function"
    },
    {
      "inputs": [],
      "name": "drawee",
      "outputs": [
        {
          "internalType": "address",
          "name": "",
          "type": "address"
        }
      ],
      "stateMutability": "view",
      "type": "function"
    },
    {
      "inputs": [
        {
          "internalType": "contract IBeneficiaryContract",
          "name": "_beneficiary",
          "type": "address"
        }
      ],
      "name": "isBeneficiaryApproved",
      "outputs": [
        {
          "internalType": "bool",
          "name": "",
          "type": "bool"
        }
      ],
      "stateMutability": "view",
      "type": "function"
    },
    {
      "inputs": [],
      "name": "owner",
      "outputs": [
        {
          "internalType": "address",
          "name": "",
          "type": "address"
        }
      ],
      "stateMutability": "view",
      "type": "function"
    },
    {
      "inputs": [
        {
          "internalType": "address",
          "name": "_from",
          "type": "address"
        },
        {
          "internalType": "uint256",
          "name": "_value",
          "type": "uint256"
        },
        {
          "internalType": "address",
          "name": "_token",
          "type": "address"
        },
        {
          "internalType": "bytes",
          "name": "",
          "type": "bytes"
        }
      ],
      "name": "receiveApproval",
      "outputs": [],
      "stateMutability": "nonpayable",
      "type": "function"
    },
    {
      "inputs": [],
      "name": "renounceOwnership",
      "outputs": [],
      "stateMutability": "nonpayable",
      "type": "function"
    },
    {
      "inputs": [
        {
          "internalType": "address",
          "name": "newDrawee",
          "type": "address"
        }
      ],
      "name": "setDrawee",
      "outputs": [],
      "stateMutability": "nonpayable",
      "type": "function"
    },
    {
      "inputs": [],
      "name": "token",
      "outputs": [
        {
          "internalType": "contract IERC20",
          "name": "",
          "type": "address"
        }
      ],
      "stateMutability": "view",
      "type": "function"
    },
    {
      "inputs": [
        {
          "internalType": "address",
          "name": "newOwner",
          "type": "address"
        }
      ],
      "name": "transferOwnership",
      "outputs": [],
      "stateMutability": "nonpayable",
      "type": "function"
    }
  ],
  "transactionHash": "0x0d0e587cc0652ec111ae9d92db0ff1f92d2952cd0a6362263e37dd9ff55721b9",
  "args": [
    "0xCdF7028ceAB81fA0C6971208e83fa7872994beE5"
  ],
  "numDeployments": 1,
  "solcInputHash": "1f648bbc62fc09e530210f2d58cb219e",
  "bytecode": "0x60806040523480156200001157600080fd5b5060405162001e3e38038062001e3e83398181016040528101906200003791906200022a565b620000576200004b620000e060201b60201c565b620000e860201b60201c565b80600160006101000a81548173ffffffffffffffffffffffffffffffffffffffff021916908373ffffffffffffffffffffffffffffffffffffffff16021790555033600260006101000a81548173ffffffffffffffffffffffffffffffffffffffff021916908373ffffffffffffffffffffffffffffffffffffffff160217905550506200025c565b600033905090565b60008060009054906101000a900473ffffffffffffffffffffffffffffffffffffffff169050816000806101000a81548173ffffffffffffffffffffffffffffffffffffffff021916908373ffffffffffffffffffffffffffffffffffffffff1602179055508173ffffffffffffffffffffffffffffffffffffffff168173ffffffffffffffffffffffffffffffffffffffff167f8be0079c531659141344cd1fd0a4f28419497f9722a3daafe3b4186f6b6457e060405160405180910390a35050565b600080fd5b600073ffffffffffffffffffffffffffffffffffffffff82169050919050565b6000620001de82620001b1565b9050919050565b6000620001f282620001d1565b9050919050565b6200020481620001e5565b81146200021057600080fd5b50565b6000815190506200022481620001f9565b92915050565b600060208284031215620002435762000242620001ac565b5b6000620002538482850162000213565b91505092915050565b611bd2806200026c6000396000f3fe608060405234801561001057600080fd5b506004361061009e5760003560e01c8063ba07075011610066578063ba0707501461011f578063d6d0aa411461013b578063f2fde38b14610159578063f70cb38e14610175578063fc0c546a146101a55761009e565b8063431714c3146100a3578063715018a6146100bf5780638da5cb5b146100c95780638f4ffcb1146100e7578063a1c9b08014610103575b600080fd5b6100bd60048036038101906100b89190610e1d565b6101c3565b005b6100c76102d3565b005b6100d16102e7565b6040516100de9190610e59565b60405180910390f35b61010160048036038101906100fc919061101c565b610310565b005b61011d6004803603810190610118919061122a565b6103f5565b005b610139600480360381019061013491906112a2565b610579565b005b610143610690565b6040516101509190610e59565b60405180910390f35b610173600480360381019061016e91906112a2565b6106b6565b005b61018f600480360381019061018a9190610e1d565b61073a565b60405161019c91906112ea565b60405180910390f35b6101ad610790565b6040516101ba9190611364565b60405180910390f35b6101cb6107b6565b6000819050600073ffffffffffffffffffffffffffffffffffffffff168173ffffffffffffffffffffffffffffffffffffffff161415610240576040517f08c379a000000000000000000000000000000000000000000000000000000000815260040161023790611402565b60405180910390fd5b6001600360008373ffffffffffffffffffffffffffffffffffffffff1673ffffffffffffffffffffffffffffffffffffffff16815260200190815260200160002060006101000a81548160ff0219169083151502179055507fae756b0a5bd1fbe0871906ac484a39752d357561ca291b46f52c068408c39a96816040516102c79190610e59565b60405180910390a15050565b6102db6107b6565b6102e56000610834565b565b60008060009054906101000a900473ffffffffffffffffffffffffffffffffffffffff16905090565b600160009054906101000a900473ffffffffffffffffffffffffffffffffffffffff1673ffffffffffffffffffffffffffffffffffffffff168273ffffffffffffffffffffffffffffffffffffffff16146103a0576040517f08c379a00000000000000000000000000000000000000000000000000000000081526004016103979061146e565b60405180910390fd5b6103ef843085600160009054906101000a900473ffffffffffffffffffffffffffffffffffffffff1673ffffffffffffffffffffffffffffffffffffffff166108f8909392919063ffffffff16565b50505050565b3373ffffffffffffffffffffffffffffffffffffffff16600260009054906101000a900473ffffffffffffffffffffffffffffffffffffffff1673ffffffffffffffffffffffffffffffffffffffff1614610485576040517f08c379a000000000000000000000000000000000000000000000000000000000815260040161047c906114da565b60405180910390fd5b80518251146104c9576040517f08c379a00000000000000000000000000000000000000000000000000000000081526004016104c090611546565b60405180910390fd5b60005b82518110156105745760008382815181106104ea576104e9611566565b5b602002602001015190506104fd8161073a565b61053c576040517f08c379a0000000000000000000000000000000000000000000000000000000008152600401610533906115e1565b60405180910390fd5b6105608184848151811061055357610552611566565b5b6020026020010151610981565b50808061056c90611630565b9150506104cc565b505050565b6105816107b6565b600073ffffffffffffffffffffffffffffffffffffffff168173ffffffffffffffffffffffffffffffffffffffff1614156105f1576040517f08c379a00000000000000000000000000000000000000000000000000000000081526004016105e8906116eb565b60405180910390fd5b7f2cd645351aa758b6871e153e13b27063dc3eefbf1a8acc38b31486f099cb7510600260009054906101000a900473ffffffffffffffffffffffffffffffffffffffff168260405161064492919061170b565b60405180910390a180600260006101000a81548173ffffffffffffffffffffffffffffffffffffffff021916908373ffffffffffffffffffffffffffffffffffffffff16021790555050565b600260009054906101000a900473ffffffffffffffffffffffffffffffffffffffff1681565b6106be6107b6565b600073ffffffffffffffffffffffffffffffffffffffff168173ffffffffffffffffffffffffffffffffffffffff16141561072e576040517f08c379a0000000000000000000000000000000000000000000000000000000008152600401610725906117a6565b60405180910390fd5b61073781610834565b50565b6000600360008373ffffffffffffffffffffffffffffffffffffffff1673ffffffffffffffffffffffffffffffffffffffff16815260200190815260200160002060009054906101000a900460ff169050919050565b600160009054906101000a900473ffffffffffffffffffffffffffffffffffffffff1681565b6107be610a76565b73ffffffffffffffffffffffffffffffffffffffff166107dc6102e7565b73ffffffffffffffffffffffffffffffffffffffff1614610832576040517f08c379a000000000000000000000000000000000000000000000000000000000815260040161082990611812565b60405180910390fd5b565b60008060009054906101000a900473ffffffffffffffffffffffffffffffffffffffff169050816000806101000a81548173ffffffffffffffffffffffffffffffffffffffff021916908373ffffffffffffffffffffffffffffffffffffffff1602179055508173ffffffffffffffffffffffffffffffffffffffff168173ffffffffffffffffffffffffffffffffffffffff167f8be0079c531659141344cd1fd0a4f28419497f9722a3daafe3b4186f6b6457e060405160405180910390a35050565b61097b846323b872dd60e01b85858560405160240161091993929190611841565b604051602081830303815290604052907bffffffffffffffffffffffffffffffffffffffffffffffffffffffff19166020820180517bffffffffffffffffffffffffffffffffffffffffffffffffffffffff8381831617835250505050610a7e565b50505050565b7f6352c5382c4a4578e712449ca65e83cdb392d045dfcf1cad9615189db2da244b82826040516109b2929190611878565b60405180910390a1610a078282600160009054906101000a900473ffffffffffffffffffffffffffffffffffffffff1673ffffffffffffffffffffffffffffffffffffffff16610b459092919063ffffffff16565b8173ffffffffffffffffffffffffffffffffffffffff16634a5f5456826040518263ffffffff1660e01b8152600401610a4091906118a1565b600060405180830381600087803b158015610a5a57600080fd5b505af1158015610a6e573d6000803e3d6000fd5b505050505050565b600033905090565b6000610ae0826040518060400160405280602081526020017f5361666545524332303a206c6f772d6c6576656c2063616c6c206661696c65648152508573ffffffffffffffffffffffffffffffffffffffff16610bcb9092919063ffffffff16565b9050600081511115610b405780806020019051810190610b0091906118e8565b610b3f576040517f08c379a0000000000000000000000000000000000000000000000000000000008152600401610b3690611987565b60405180910390fd5b5b505050565b610bc68363a9059cbb60e01b8484604051602401610b64929190611878565b604051602081830303815290604052907bffffffffffffffffffffffffffffffffffffffffffffffffffffffff19166020820180517bffffffffffffffffffffffffffffffffffffffffffffffffffffffff8381831617835250505050610a7e565b505050565b6060610bda8484600085610be3565b90509392505050565b606082471015610c28576040517f08c379a0000000000000000000000000000000000000000000000000000000008152600401610c1f90611a19565b60405180910390fd5b6000808673ffffffffffffffffffffffffffffffffffffffff168587604051610c519190611ab3565b60006040518083038185875af1925050503d8060008114610c8e576040519150601f19603f3d011682016040523d82523d6000602084013e610c93565b606091505b5091509150610ca487838387610cb0565b92505050949350505050565b60608315610d1357600083511415610d0b57610ccb85610d26565b610d0a576040517f08c379a0000000000000000000000000000000000000000000000000000000008152600401610d0190611b16565b60405180910390fd5b5b829050610d1e565b610d1d8383610d49565b5b949350505050565b6000808273ffffffffffffffffffffffffffffffffffffffff163b119050919050565b600082511115610d5c5781518083602001fd5b806040517f08c379a0000000000000000000000000000000000000000000000000000000008152600401610d909190611b7a565b60405180910390fd5b6000604051905090565b600080fd5b600080fd5b600073ffffffffffffffffffffffffffffffffffffffff82169050919050565b6000610dd882610dad565b9050919050565b6000610dea82610dcd565b9050919050565b610dfa81610ddf565b8114610e0557600080fd5b50565b600081359050610e1781610df1565b92915050565b600060208284031215610e3357610e32610da3565b5b6000610e4184828501610e08565b91505092915050565b610e5381610dcd565b82525050565b6000602082019050610e6e6000830184610e4a565b92915050565b610e7d81610dcd565b8114610e8857600080fd5b50565b600081359050610e9a81610e74565b92915050565b6000819050919050565b610eb381610ea0565b8114610ebe57600080fd5b50565b600081359050610ed081610eaa565b92915050565b600080fd5b600080fd5b6000601f19601f8301169050919050565b7f4e487b7100000000000000000000000000000000000000000000000000000000600052604160045260246000fd5b610f2982610ee0565b810181811067ffffffffffffffff82111715610f4857610f47610ef1565b5b80604052505050565b6000610f5b610d99565b9050610f678282610f20565b919050565b600067ffffffffffffffff821115610f8757610f86610ef1565b5b610f9082610ee0565b9050602081019050919050565b82818337600083830152505050565b6000610fbf610fba84610f6c565b610f51565b905082815260208101848484011115610fdb57610fda610edb565b5b610fe6848285610f9d565b509392505050565b600082601f83011261100357611002610ed6565b5b8135611013848260208601610fac565b91505092915050565b6000806000806080858703121561103657611035610da3565b5b600061104487828801610e8b565b945050602061105587828801610ec1565b935050604061106687828801610e8b565b925050606085013567ffffffffffffffff81111561108757611086610da8565b5b61109387828801610fee565b91505092959194509250565b600067ffffffffffffffff8211156110ba576110b9610ef1565b5b602082029050602081019050919050565b600080fd5b60006110e36110de8461109f565b610f51565b90508083825260208201905060208402830185811115611106576111056110cb565b5b835b8181101561112f578061111b8882610e08565b845260208401935050602081019050611108565b5050509392505050565b600082601f83011261114e5761114d610ed6565b5b813561115e8482602086016110d0565b91505092915050565b600067ffffffffffffffff82111561118257611181610ef1565b5b602082029050602081019050919050565b60006111a66111a184611167565b610f51565b905080838252602082019050602084028301858111156111c9576111c86110cb565b5b835b818110156111f257806111de8882610ec1565b8452602084019350506020810190506111cb565b5050509392505050565b600082601f83011261121157611210610ed6565b5b8135611221848260208601611193565b91505092915050565b6000806040838503121561124157611240610da3565b5b600083013567ffffffffffffffff81111561125f5761125e610da8565b5b61126b85828601611139565b925050602083013567ffffffffffffffff81111561128c5761128b610da8565b5b611298858286016111fc565b9150509250929050565b6000602082840312156112b8576112b7610da3565b5b60006112c684828501610e8b565b91505092915050565b60008115159050919050565b6112e4816112cf565b82525050565b60006020820190506112ff60008301846112db565b92915050565b6000819050919050565b600061132a61132561132084610dad565b611305565b610dad565b9050919050565b600061133c8261130f565b9050919050565b600061134e82611331565b9050919050565b61135e81611343565b82525050565b60006020820190506113796000830184611355565b92915050565b600082825260208201905092915050565b7f42656e65666963696172792063616e206e6f74206265207a65726f206164647260008201527f6573730000000000000000000000000000000000000000000000000000000000602082015250565b60006113ec60238361137f565b91506113f782611390565b604082019050919050565b6000602082019050818103600083015261141b816113df565b9050919050565b7f556e737570706f7274656420746f6b656e000000000000000000000000000000600082015250565b600061145860118361137f565b915061146382611422565b602082019050919050565b600060208201905081810360008301526114878161144b565b9050919050565b7f43616c6c6572206973206e6f7420746865206472617765650000000000000000600082015250565b60006114c460188361137f565b91506114cf8261148e565b602082019050919050565b600060208201905081810360008301526114f3816114b7565b9050919050565b7f4d69736d61746368656420617272617973206c656e6774680000000000000000600082015250565b600061153060188361137f565b915061153b826114fa565b602082019050919050565b6000602082019050818103600083015261155f81611523565b9050919050565b7f4e487b7100000000000000000000000000000000000000000000000000000000600052603260045260246000fd5b7f42656e656669636961727920776173206e6f7420617070726f76656400000000600082015250565b60006115cb601c8361137f565b91506115d682611595565b602082019050919050565b600060208201905081810360008301526115fa816115be565b9050919050565b7f4e487b7100000000000000000000000000000000000000000000000000000000600052601160045260246000fd5b600061163b82610ea0565b91507fffffffffffffffffffffffffffffffffffffffffffffffffffffffffffffffff82141561166e5761166d611601565b5b600182019050919050565b7f4e6577206472617765652063616e206e6f74206265207a65726f20616464726560008201527f7373000000000000000000000000000000000000000000000000000000000000602082015250565b60006116d560228361137f565b91506116e082611679565b604082019050919050565b60006020820190508181036000830152611704816116c8565b9050919050565b60006040820190506117206000830185610e4a565b61172d6020830184610e4a565b9392505050565b7f4f776e61626c653a206e6577206f776e657220697320746865207a65726f206160008201527f6464726573730000000000000000000000000000000000000000000000000000602082015250565b600061179060268361137f565b915061179b82611734565b604082019050919050565b600060208201905081810360008301526117bf81611783565b9050919050565b7f4f776e61626c653a2063616c6c6572206973206e6f7420746865206f776e6572600082015250565b60006117fc60208361137f565b9150611807826117c6565b602082019050919050565b6000602082019050818103600083015261182b816117ef565b9050919050565b61183b81610ea0565b82525050565b60006060820190506118566000830186610e4a565b6118636020830185610e4a565b6118706040830184611832565b949350505050565b600060408201905061188d6000830185610e4a565b61189a6020830184611832565b9392505050565b60006020820190506118b66000830184611832565b92915050565b6118c5816112cf565b81146118d057600080fd5b50565b6000815190506118e2816118bc565b92915050565b6000602082840312156118fe576118fd610da3565b5b600061190c848285016118d3565b91505092915050565b7f5361666545524332303a204552433230206f7065726174696f6e20646964206e60008201527f6f74207375636365656400000000000000000000000000000000000000000000602082015250565b6000611971602a8361137f565b915061197c82611915565b604082019050919050565b600060208201905081810360008301526119a081611964565b9050919050565b7f416464726573733a20696e73756666696369656e742062616c616e636520666f60008201527f722063616c6c0000000000000000000000000000000000000000000000000000602082015250565b6000611a0360268361137f565b9150611a0e826119a7565b604082019050919050565b60006020820190508181036000830152611a32816119f6565b9050919050565b600081519050919050565b600081905092915050565b60005b83811015611a6d578082015181840152602081019050611a52565b83811115611a7c576000848401525b50505050565b6000611a8d82611a39565b611a978185611a44565b9350611aa7818560208601611a4f565b80840191505092915050565b6000611abf8284611a82565b915081905092915050565b7f416464726573733a2063616c6c20746f206e6f6e2d636f6e7472616374000000600082015250565b6000611b00601d8361137f565b9150611b0b82611aca565b602082019050919050565b60006020820190508181036000830152611b2f81611af3565b9050919050565b600081519050919050565b6000611b4c82611b36565b611b56818561137f565b9350611b66818560208601611a4f565b611b6f81610ee0565b840191505092915050565b60006020820190508181036000830152611b948184611b41565b90509291505056fea2646970667358221220e866eaf732d163a6a7078656998c3165d0dec06cf5a3aff327d7470ab2fc616f64736f6c63430008090033",
  "devdoc": {
    "kind": "dev",
    "methods": {
      "owner()": {
        "details": "Returns the address of the current owner."
      },
      "renounceOwnership()": {
        "details": "Leaves the contract without owner. It will not be possible to call `onlyOwner` functions anymore. Can only be called by the current owner. NOTE: Renouncing ownership will leave the contract without an owner, thereby removing any functionality that is only available to the owner."
      },
      "transferOwnership(address)": {
        "details": "Transfers ownership of the contract to a new account (`newOwner`). Can only be called by the current owner."
      }
    },
    "title": "BatchedPhasedEscrow",
    "version": 1
  },
  "userdoc": {
    "kind": "user",
    "methods": {
      "approveBeneficiary(address)": {
        "notice": "Approves the provided address as a beneficiary of tokens held by         the escrow. Can be called only by escrow owner."
      },
      "batchedWithdraw(address[],uint256[])": {
        "notice": "Withdraws tokens from escrow to selected beneficiaries,         transferring to each beneficiary the amount of tokens specified         as a parameter. Only beneficiaries previously approved by escrow         owner can receive funds."
      },
      "isBeneficiaryApproved(address)": {
        "notice": "Returns `true` if the given address has been approved as a         beneficiary of the escrow, `false` otherwise."
      },
      "receiveApproval(address,uint256,address,bytes)": {
        "notice": "Funds the escrow by transferring all of the approved tokens         to the escrow."
      },
      "setDrawee(address)": {
        "notice": "Transfers the role of drawee to another address. Can be called         only by the contract owner."
      }
    },
    "notice": "A token holder contract allowing contract owner to approve a set of         beneficiaries of tokens held by the contract, to appoint a separate         drawee role, and allowing that drawee to withdraw tokens to approved         beneficiaries in phases.",
    "version": 1
  },
  "storageLayout": {
    "storage": [
      {
        "astId": 488,
        "contract": "contracts/BatchedPhasedEscrow.sol:BatchedPhasedEscrow",
        "label": "_owner",
        "offset": 0,
        "slot": "0",
        "type": "t_address"
      },
      {
        "astId": 7479,
        "contract": "contracts/BatchedPhasedEscrow.sol:BatchedPhasedEscrow",
        "label": "token",
        "offset": 0,
        "slot": "1",
        "type": "t_contract(IERC20)671"
      },
      {
        "astId": 7481,
        "contract": "contracts/BatchedPhasedEscrow.sol:BatchedPhasedEscrow",
        "label": "drawee",
        "offset": 0,
        "slot": "2",
        "type": "t_address"
      },
      {
        "astId": 7485,
        "contract": "contracts/BatchedPhasedEscrow.sol:BatchedPhasedEscrow",
        "label": "approvedBeneficiaries",
        "offset": 0,
        "slot": "3",
        "type": "t_mapping(t_address,t_bool)"
      }
    ],
    "types": {
      "t_address": {
        "encoding": "inplace",
        "label": "address",
        "numberOfBytes": "20"
      },
      "t_bool": {
        "encoding": "inplace",
        "label": "bool",
        "numberOfBytes": "1"
      },
      "t_contract(IERC20)671": {
        "encoding": "inplace",
        "label": "contract IERC20",
        "numberOfBytes": "20"
      },
      "t_mapping(t_address,t_bool)": {
        "encoding": "mapping",
        "key": "t_address",
        "label": "mapping(address => bool)",
        "numberOfBytes": "32",
        "value": "t_bool"
      }
    }
  }
}