{
  "address": "0x7D7B622C07f216d99eFc3EfB9Cf71872F46D811A",
  "abi": [
    {
      "inputs": [
        {
          "internalType": "contract AssetPool",
          "name": "_assetPool",
          "type": "address"
        }
      ],
      "stateMutability": "nonpayable",
      "type": "constructor"
    },
    {
      "anonymous": false,
      "inputs": [
        {
          "indexed": true,
          "internalType": "address",
          "name": "previousOwner",
          "type": "address"
        },
        {
          "indexed": true,
          "internalType": "address",
          "name": "newOwner",
          "type": "address"
        }
      ],
      "name": "OwnershipTransferred",
      "type": "event"
    },
    {
      "anonymous": false,
      "inputs": [
        {
          "indexed": false,
          "internalType": "address",
          "name": "riskManager",
          "type": "address"
        },
        {
          "indexed": false,
          "internalType": "uint256",
          "name": "timestamp",
          "type": "uint256"
        }
      ],
      "name": "RiskManagerApprovalCompleted",
      "type": "event"
    },
    {
      "anonymous": false,
      "inputs": [
        {
          "indexed": false,
          "internalType": "address",
          "name": "riskManager",
          "type": "address"
        },
        {
          "indexed": false,
          "internalType": "uint256",
          "name": "timestamp",
          "type": "uint256"
        }
      ],
      "name": "RiskManagerApprovalStarted",
      "type": "event"
    },
    {
      "anonymous": false,
      "inputs": [
        {
          "indexed": false,
          "internalType": "address",
          "name": "riskManager",
          "type": "address"
        },
        {
          "indexed": false,
          "internalType": "uint256",
          "name": "timestamp",
          "type": "uint256"
        }
      ],
      "name": "RiskManagerUnapproved",
      "type": "event"
    },
    {
      "inputs": [
        {
          "internalType": "uint256",
          "name": "portionToSeize",
          "type": "uint256"
        }
      ],
      "name": "amountToSeize",
      "outputs": [
        {
          "internalType": "uint256",
          "name": "",
          "type": "uint256"
        }
      ],
      "stateMutability": "view",
      "type": "function"
    },
    {
      "inputs": [
        {
          "internalType": "address",
          "name": "riskManager",
          "type": "address"
        }
      ],
      "name": "approveFirstRiskManager",
      "outputs": [],
      "stateMutability": "nonpayable",
      "type": "function"
    },
    {
      "inputs": [
        {
          "internalType": "contract IAssetPoolUpgrade",
          "name": "_newAssetPool",
          "type": "address"
        }
      ],
      "name": "approveNewAssetPoolUpgrade",
      "outputs": [],
      "stateMutability": "nonpayable",
      "type": "function"
    },
    {
      "inputs": [
        {
          "internalType": "address",
          "name": "",
          "type": "address"
        }
      ],
      "name": "approvedRiskManagers",
      "outputs": [
        {
          "internalType": "bool",
          "name": "",
          "type": "bool"
        }
      ],
      "stateMutability": "view",
      "type": "function"
    },
    {
      "inputs": [],
      "name": "assetPool",
      "outputs": [
        {
          "internalType": "contract AssetPool",
          "name": "",
          "type": "address"
        }
      ],
      "stateMutability": "view",
      "type": "function"
    },
    {
      "inputs": [
        {
          "internalType": "address",
          "name": "riskManager",
          "type": "address"
        }
      ],
      "name": "beginRiskManagerApproval",
      "outputs": [],
      "stateMutability": "nonpayable",
      "type": "function"
    },
    {
      "inputs": [
        {
          "internalType": "uint256",
          "name": "newWithdrawalDelay",
          "type": "uint256"
        }
      ],
      "name": "beginWithdrawalDelayUpdate",
      "outputs": [],
      "stateMutability": "nonpayable",
      "type": "function"
    },
    {
      "inputs": [
        {
          "internalType": "uint256",
          "name": "newWithdrawalTimeout",
          "type": "uint256"
        }
      ],
      "name": "beginWithdrawalTimeoutUpdate",
      "outputs": [],
      "stateMutability": "nonpayable",
      "type": "function"
    },
    {
      "inputs": [],
      "name": "collateralToken",
      "outputs": [
        {
          "internalType": "contract ICollateralToken",
          "name": "",
          "type": "address"
        }
      ],
      "stateMutability": "view",
      "type": "function"
    },
    {
      "inputs": [
        {
          "internalType": "address",
          "name": "riskManager",
          "type": "address"
        }
      ],
      "name": "finalizeRiskManagerApproval",
      "outputs": [],
      "stateMutability": "nonpayable",
      "type": "function"
    },
    {
      "inputs": [],
      "name": "finalizeWithdrawalDelayUpdate",
      "outputs": [],
      "stateMutability": "nonpayable",
      "type": "function"
    },
    {
      "inputs": [],
      "name": "finalizeWithdrawalTimeoutUpdate",
      "outputs": [],
      "stateMutability": "nonpayable",
      "type": "function"
    },
    {
      "inputs": [],
      "name": "firstRiskManagerApproved",
      "outputs": [
        {
          "internalType": "bool",
          "name": "",
          "type": "bool"
        }
      ],
      "stateMutability": "view",
      "type": "function"
    },
    {
      "inputs": [
        {
          "internalType": "address",
          "name": "account",
          "type": "address"
        },
        {
          "internalType": "uint256",
          "name": "blockNumber",
          "type": "uint256"
        }
      ],
      "name": "getPastVotes",
      "outputs": [
        {
          "internalType": "uint96",
          "name": "",
          "type": "uint96"
        }
      ],
      "stateMutability": "view",
      "type": "function"
    },
    {
      "inputs": [
        {
          "internalType": "address",
          "name": "riskManager",
          "type": "address"
        }
      ],
      "name": "getRemainingRiskManagerApprovalTime",
      "outputs": [
        {
          "internalType": "uint256",
          "name": "",
          "type": "uint256"
        }
      ],
      "stateMutability": "view",
      "type": "function"
    },
    {
      "inputs": [
        {
          "internalType": "address",
          "name": "recipient",
          "type": "address"
        },
        {
          "internalType": "uint256",
          "name": "covAmount",
          "type": "uint256"
        }
      ],
      "name": "grantAssetPoolShares",
      "outputs": [],
      "stateMutability": "nonpayable",
      "type": "function"
    },
    {
      "inputs": [],
      "name": "owner",
      "outputs": [
        {
          "internalType": "address",
          "name": "",
          "type": "address"
        }
      ],
      "stateMutability": "view",
      "type": "function"
    },
    {
      "inputs": [],
      "name": "renounceOwnership",
      "outputs": [],
      "stateMutability": "nonpayable",
      "type": "function"
    },
    {
      "inputs": [
        {
          "internalType": "address",
          "name": "",
          "type": "address"
        }
      ],
      "name": "riskManagerApprovalTimestamps",
      "outputs": [
        {
          "internalType": "uint256",
          "name": "",
          "type": "uint256"
        }
      ],
      "stateMutability": "view",
      "type": "function"
    },
    {
      "inputs": [
        {
          "internalType": "address",
          "name": "recipient",
          "type": "address"
        },
        {
          "internalType": "uint256",
          "name": "amountToSeize",
          "type": "uint256"
        }
      ],
      "name": "seizeAmount",
      "outputs": [],
      "stateMutability": "nonpayable",
      "type": "function"
    },
    {
      "inputs": [
        {
          "internalType": "address",
          "name": "recipient",
          "type": "address"
        },
        {
          "internalType": "uint256",
          "name": "portionToSeize",
          "type": "uint256"
        }
      ],
      "name": "seizePortion",
      "outputs": [],
      "stateMutability": "nonpayable",
      "type": "function"
    },
    {
      "inputs": [
        {
          "internalType": "address",
          "name": "newOwner",
          "type": "address"
        }
      ],
      "name": "transferOwnership",
      "outputs": [],
      "stateMutability": "nonpayable",
      "type": "function"
    },
    {
      "inputs": [
        {
          "internalType": "address",
          "name": "riskManager",
          "type": "address"
        }
      ],
      "name": "unapproveRiskManager",
      "outputs": [],
      "stateMutability": "nonpayable",
      "type": "function"
    },
    {
      "inputs": [],
      "name": "underwriterToken",
      "outputs": [
        {
          "internalType": "contract UnderwriterToken",
          "name": "",
          "type": "address"
        }
      ],
      "stateMutability": "view",
      "type": "function"
    }
  ],
  "transactionHash": "0x1e59f22dcdfd1aaed6b0eacc5bf8b4ff69552a813fa12ff6c8ae72a462d0f434",
  "args": [
    "0x21b86FDC93F23fD52022A283828dF8E808D28D5D"
  ],
  "numDeployments": 1,
  "solcInputHash": "1f648bbc62fc09e530210f2d58cb219e",
  "bytecode": "0x60e060405260008060146101000a81548160ff0219169083151502179055503480156200002b57600080fd5b5060405162002a4238038062002a42833981810160405281019062000051919062000360565b62000071620000656200021660201b60201c565b6200021e60201b60201c565b8073ffffffffffffffffffffffffffffffffffffffff1660808173ffffffffffffffffffffffffffffffffffffffff16815250508073ffffffffffffffffffffffffffffffffffffffff1663b2016bd46040518163ffffffff1660e01b815260040160206040518083038186803b158015620000ec57600080fd5b505afa15801562000101573d6000803e3d6000fd5b505050506040513d601f19601f82011682018060405250810190620001279190620003d7565b73ffffffffffffffffffffffffffffffffffffffff1660a08173ffffffffffffffffffffffffffffffffffffffff16815250508073ffffffffffffffffffffffffffffffffffffffff1663cc5398046040518163ffffffff1660e01b815260040160206040518083038186803b158015620001a157600080fd5b505afa158015620001b6573d6000803e3d6000fd5b505050506040513d601f19601f82011682018060405250810190620001dc91906200044e565b73ffffffffffffffffffffffffffffffffffffffff1660c08173ffffffffffffffffffffffffffffffffffffffff16815250505062000480565b600033905090565b60008060009054906101000a900473ffffffffffffffffffffffffffffffffffffffff169050816000806101000a81548173ffffffffffffffffffffffffffffffffffffffff021916908373ffffffffffffffffffffffffffffffffffffffff1602179055508173ffffffffffffffffffffffffffffffffffffffff168173ffffffffffffffffffffffffffffffffffffffff167f8be0079c531659141344cd1fd0a4f28419497f9722a3daafe3b4186f6b6457e060405160405180910390a35050565b600080fd5b600073ffffffffffffffffffffffffffffffffffffffff82169050919050565b60006200031482620002e7565b9050919050565b6000620003288262000307565b9050919050565b6200033a816200031b565b81146200034657600080fd5b50565b6000815190506200035a816200032f565b92915050565b600060208284031215620003795762000378620002e2565b5b6000620003898482850162000349565b91505092915050565b60006200039f8262000307565b9050919050565b620003b18162000392565b8114620003bd57600080fd5b50565b600081519050620003d181620003a6565b92915050565b600060208284031215620003f057620003ef620002e2565b5b60006200040084828501620003c0565b91505092915050565b6000620004168262000307565b9050919050565b620004288162000409565b81146200043457600080fd5b50565b60008151905062000448816200041d565b92915050565b600060208284031215620004675762000466620002e2565b5b6000620004778482850162000437565b91505092915050565b60805160a05160c05161252262000520600039600081816108e40152818161099301526115b2015260008181610a6201528181610c7701526112ca015260008181610452015281816104dc01528181610566015281816106800152818161071101528181610a9e01528181610bc101528181610cb301528181610d6301528181610ee80152818161100b0152818161123c01526113bd01526125226000f3fe608060405234801561001057600080fd5b50600436106101585760003560e01c806376b6a1af116100c3578063c753e5801161007c578063c753e58014610363578063cc5398041461037f578063ccfbf30a1461039d578063e1e92fcf146103cd578063efec39a0146103fd578063f2fde38b1461041957610158565b806376b6a1af146102b757806384e1c564146102d35780638da5cb5b146102ef5780639ac9e7e51461030d578063b2016bd414610329578063bdceb0e21461034757610158565b806333f29dd01161011557806333f29dd0146101e55780633a46b1a814610201578063465b43e6146102315780635d6f5ddb1461026157806369da62f414610291578063715018a6146102ad57610158565b80630647cada1461015d578063092b7eb51461017b57806315245857146101855780632828fdb11461018f5780632b9d0579146101ab5780632ec939f9146101c7575b600080fd5b610165610435565b604051610172919061193d565b60405180910390f35b610183610448565b005b61018d6104d2565b005b6101a960048036038101906101a49190611993565b61055c565b005b6101c560048036038101906101c09190611a1e565b6105f2565b005b6101cf61070f565b6040516101dc9190611abd565b60405180910390f35b6101ff60048036038101906101fa9190611ad8565b610733565b005b61021b60048036038101906102169190611a1e565b6108df565b6040516102289190611b2c565b60405180910390f35b61024b60048036038101906102469190611ad8565b610b7a565b6040516102589190611b56565b60405180910390f35b61027b60048036038101906102769190611993565b610c69565b6040516102889190611b56565b60405180910390f35b6102ab60048036038101906102a69190611baf565b610d59565b005b6102b5610def565b005b6102d160048036038101906102cc9190611a1e565b610e03565b005b6102ed60048036038101906102e89190611ad8565b610f7f565b005b6102f7611209565b6040516103049190611beb565b60405180910390f35b61032760048036038101906103229190611993565b611232565b005b6103316112c8565b60405161033e9190611c27565b60405180910390f35b610361600480360381019061035c9190611a1e565b6112ec565b005b61037d60048036038101906103789190611ad8565b61144c565b005b6103876115b0565b6040516103949190611c63565b60405180910390f35b6103b760048036038101906103b29190611ad8565b6115d4565b6040516103c4919061193d565b60405180910390f35b6103e760048036038101906103e29190611ad8565b6115f4565b6040516103f49190611b56565b60405180910390f35b61041760048036038101906104129190611ad8565b61160c565b005b610433600480360381019061042e9190611ad8565b6116d9565b005b600060149054906101000a900460ff1681565b61045061175d565b7f000000000000000000000000000000000000000000000000000000000000000073ffffffffffffffffffffffffffffffffffffffff1663092b7eb56040518163ffffffff1660e01b8152600401600060405180830381600087803b1580156104b857600080fd5b505af11580156104cc573d6000803e3d6000fd5b50505050565b6104da61175d565b7f000000000000000000000000000000000000000000000000000000000000000073ffffffffffffffffffffffffffffffffffffffff1663152458576040518163ffffffff1660e01b8152600401600060405180830381600087803b15801561054257600080fd5b505af1158015610556573d6000803e3d6000fd5b50505050565b61056461175d565b7f000000000000000000000000000000000000000000000000000000000000000073ffffffffffffffffffffffffffffffffffffffff16632828fdb1826040518263ffffffff1660e01b81526004016105bd9190611b56565b600060405180830381600087803b1580156105d757600080fd5b505af11580156105eb573d6000803e3d6000fd5b5050505050565b600160003373ffffffffffffffffffffffffffffffffffffffff1673ffffffffffffffffffffffffffffffffffffffff16815260200190815260200160002060009054906101000a900460ff1661067e576040517f08c379a000000000000000000000000000000000000000000000000000000000815260040161067590611cdb565b60405180910390fd5b7f000000000000000000000000000000000000000000000000000000000000000073ffffffffffffffffffffffffffffffffffffffff1663ff603d2283836040518363ffffffff1660e01b81526004016106d9929190611cfb565b600060405180830381600087803b1580156106f357600080fd5b505af1158015610707573d6000803e3d6000fd5b505050505050565b7f000000000000000000000000000000000000000000000000000000000000000081565b61073b61175d565b6000600260008373ffffffffffffffffffffffffffffffffffffffff1673ffffffffffffffffffffffffffffffffffffffff1681526020019081526020016000205411806107d25750600160008273ffffffffffffffffffffffffffffffffffffffff1673ffffffffffffffffffffffffffffffffffffffff16815260200190815260200160002060009054906101000a900460ff165b610811576040517f08c379a000000000000000000000000000000000000000000000000000000000815260040161080890611d96565b60405180910390fd5b600260008273ffffffffffffffffffffffffffffffffffffffff1673ffffffffffffffffffffffffffffffffffffffff16815260200190815260200160002060009055600160008273ffffffffffffffffffffffffffffffffffffffff1673ffffffffffffffffffffffffffffffffffffffff16815260200190815260200160002060006101000a81549060ff02191690557f9bf9ec07f4d3e134e1a799a215cf4c47dbf1c427fe348f3c0d3994ef1c2e295781426040516108d4929190611cfb565b60405180910390a150565b6000807f000000000000000000000000000000000000000000000000000000000000000073ffffffffffffffffffffffffffffffffffffffff16633a46b1a885856040518363ffffffff1660e01b815260040161093d929190611cfb565b60206040518083038186803b15801561095557600080fd5b505afa158015610969573d6000803e3d6000fd5b505050506040513d601f19601f8201168201806040525081019061098d9190611de2565b905060007f000000000000000000000000000000000000000000000000000000000000000073ffffffffffffffffffffffffffffffffffffffff16638e539e8c856040518263ffffffff1660e01b81526004016109ea9190611b56565b60206040518083038186803b158015610a0257600080fd5b505afa158015610a16573d6000803e3d6000fd5b505050506040513d601f19601f82011682018060405250810190610a3a9190611de2565b90506000816bffffffffffffffffffffffff161415610a5e57600092505050610b74565b60007f000000000000000000000000000000000000000000000000000000000000000073ffffffffffffffffffffffffffffffffffffffff16633a46b1a87f0000000000000000000000000000000000000000000000000000000000000000876040518363ffffffff1660e01b8152600401610adb929190611cfb565b60206040518083038186803b158015610af357600080fd5b505afa158015610b07573d6000803e3d6000fd5b505050506040513d601f19601f82011682018060405250810190610b2b9190611de2565b9050816bffffffffffffffffffffffff16816bffffffffffffffffffffffff16846bffffffffffffffffffffffff16610b649190611e3e565b610b6e9190611ec7565b93505050505b92915050565b6000610c62600260008473ffffffffffffffffffffffffffffffffffffffff1673ffffffffffffffffffffffffffffffffffffffff168152602001908152602001600020547f000000000000000000000000000000000000000000000000000000000000000073ffffffffffffffffffffffffffffffffffffffff16632d2545e76040518163ffffffff1660e01b815260040160206040518083038186803b158015610c2557600080fd5b505afa158015610c39573d6000803e3d6000fd5b505050506040513d601f19601f82011682018060405250810190610c5d9190611f0d565b6117db565b9050919050565b6000670de0b6b3a7640000827f000000000000000000000000000000000000000000000000000000000000000073ffffffffffffffffffffffffffffffffffffffff166370a082317f00000000000000000000000000000000000000000000000000000000000000006040518263ffffffff1660e01b8152600401610cee9190611beb565b60206040518083038186803b158015610d0657600080fd5b505afa158015610d1a573d6000803e3d6000fd5b505050506040513d601f19601f82011682018060405250810190610d3e9190611f0d565b610d489190611e3e565b610d529190611ec7565b9050919050565b610d6161175d565b7f000000000000000000000000000000000000000000000000000000000000000073ffffffffffffffffffffffffffffffffffffffff166369da62f4826040518263ffffffff1660e01b8152600401610dba9190611f5b565b600060405180830381600087803b158015610dd457600080fd5b505af1158015610de8573d6000803e3d6000fd5b5050505050565b610df761175d565b610e016000611856565b565b600160003373ffffffffffffffffffffffffffffffffffffffff1673ffffffffffffffffffffffffffffffffffffffff16815260200190815260200160002060009054906101000a900460ff16610e8f576040517f08c379a0000000000000000000000000000000000000000000000000000000008152600401610e8690611cdb565b60405180910390fd5b600081118015610ea75750670de0b6b3a76400008111155b610ee6576040517f08c379a0000000000000000000000000000000000000000000000000000000008152600401610edd90611fe8565b60405180910390fd5b7f000000000000000000000000000000000000000000000000000000000000000073ffffffffffffffffffffffffffffffffffffffff1663aad3ec9683610f2c84610c69565b6040518363ffffffff1660e01b8152600401610f49929190611cfb565b600060405180830381600087803b158015610f6357600080fd5b505af1158015610f77573d6000803e3d6000fd5b505050505050565b610f8761175d565b6000600260008373ffffffffffffffffffffffffffffffffffffffff1673ffffffffffffffffffffffffffffffffffffffff1681526020019081526020016000205411611009576040517f08c379a00000000000000000000000000000000000000000000000000000000081526004016110009061207a565b60405180910390fd5b7f000000000000000000000000000000000000000000000000000000000000000073ffffffffffffffffffffffffffffffffffffffff16632d2545e76040518163ffffffff1660e01b815260040160206040518083038186803b15801561106f57600080fd5b505afa158015611083573d6000803e3d6000fd5b505050506040513d601f19601f820116820180604052508101906110a79190611f0d565b600260008373ffffffffffffffffffffffffffffffffffffffff1673ffffffffffffffffffffffffffffffffffffffff16815260200190815260200160002054426110f2919061209a565b1015611133576040517f08c379a000000000000000000000000000000000000000000000000000000000815260040161112a90612140565b60405180910390fd5b60018060008373ffffffffffffffffffffffffffffffffffffffff1673ffffffffffffffffffffffffffffffffffffffff16815260200190815260200160002060006101000a81548160ff0219169083151502179055507f8499a35b7f2bbd8a5de334eed2665f0f7ea74bf1c4785bb3fb2c6a9b97fe1c5481426040516111bb929190611cfb565b60405180910390a1600260008273ffffffffffffffffffffffffffffffffffffffff1673ffffffffffffffffffffffffffffffffffffffff1681526020019081526020016000206000905550565b60008060009054906101000a900473ffffffffffffffffffffffffffffffffffffffff16905090565b61123a61175d565b7f000000000000000000000000000000000000000000000000000000000000000073ffffffffffffffffffffffffffffffffffffffff16639ac9e7e5826040518263ffffffff1660e01b81526004016112939190611b56565b600060405180830381600087803b1580156112ad57600080fd5b505af11580156112c1573d6000803e3d6000fd5b5050505050565b7f000000000000000000000000000000000000000000000000000000000000000081565b600160003373ffffffffffffffffffffffffffffffffffffffff1673ffffffffffffffffffffffffffffffffffffffff16815260200190815260200160002060009054906101000a900460ff16611378576040517f08c379a000000000000000000000000000000000000000000000000000000000815260040161136f90611cdb565b60405180910390fd5b600081116113bb576040517f08c379a00000000000000000000000000000000000000000000000000000000081526004016113b2906121ac565b60405180910390fd5b7f000000000000000000000000000000000000000000000000000000000000000073ffffffffffffffffffffffffffffffffffffffff1663aad3ec9683836040518363ffffffff1660e01b8152600401611416929190611cfb565b600060405180830381600087803b15801561143057600080fd5b505af1158015611444573d6000803e3d6000fd5b505050505050565b61145461175d565b600060149054906101000a900460ff166114a3576040517f08c379a000000000000000000000000000000000000000000000000000000000815260040161149a90612264565b60405180910390fd5b600160008273ffffffffffffffffffffffffffffffffffffffff1673ffffffffffffffffffffffffffffffffffffffff16815260200190815260200160002060009054906101000a900460ff1615611530576040517f08c379a0000000000000000000000000000000000000000000000000000000008152600401611527906122d0565b60405180910390fd5b42600260008373ffffffffffffffffffffffffffffffffffffffff1673ffffffffffffffffffffffffffffffffffffffff168152602001908152602001600020819055507f981f6bdfdbe336d34d32ee17135d9517e6a5ffb574159f7ceaf02b3e2ed255b281426040516115a5929190611cfb565b60405180910390a150565b7f000000000000000000000000000000000000000000000000000000000000000081565b60016020528060005260406000206000915054906101000a900460ff1681565b60026020528060005260406000206000915090505481565b61161461175d565b600060149054906101000a900460ff1615611664576040517f08c379a000000000000000000000000000000000000000000000000000000000815260040161165b90612362565b60405180910390fd5b60018060008373ffffffffffffffffffffffffffffffffffffffff1673ffffffffffffffffffffffffffffffffffffffff16815260200190815260200160002060006101000a81548160ff0219169083151502179055506001600060146101000a81548160ff02191690831515021790555050565b6116e161175d565b600073ffffffffffffffffffffffffffffffffffffffff168173ffffffffffffffffffffffffffffffffffffffff161415611751576040517f08c379a0000000000000000000000000000000000000000000000000000000008152600401611748906123f4565b60405180910390fd5b61175a81611856565b50565b61176561191a565b73ffffffffffffffffffffffffffffffffffffffff16611783611209565b73ffffffffffffffffffffffffffffffffffffffff16146117d9576040517f08c379a00000000000000000000000000000000000000000000000000000000081526004016117d090612460565b60405180910390fd5b565b600080831161181f576040517f08c379a0000000000000000000000000000000000000000000000000000000008152600401611816906124cc565b60405180910390fd5b6000834261182d919061209a565b9050828110611840576000915050611850565b808361184c919061209a565b9150505b92915050565b60008060009054906101000a900473ffffffffffffffffffffffffffffffffffffffff169050816000806101000a81548173ffffffffffffffffffffffffffffffffffffffff021916908373ffffffffffffffffffffffffffffffffffffffff1602179055508173ffffffffffffffffffffffffffffffffffffffff168173ffffffffffffffffffffffffffffffffffffffff167f8be0079c531659141344cd1fd0a4f28419497f9722a3daafe3b4186f6b6457e060405160405180910390a35050565b600033905090565b60008115159050919050565b61193781611922565b82525050565b6000602082019050611952600083018461192e565b92915050565b600080fd5b6000819050919050565b6119708161195d565b811461197b57600080fd5b50565b60008135905061198d81611967565b92915050565b6000602082840312156119a9576119a8611958565b5b60006119b78482850161197e565b91505092915050565b600073ffffffffffffffffffffffffffffffffffffffff82169050919050565b60006119eb826119c0565b9050919050565b6119fb816119e0565b8114611a0657600080fd5b50565b600081359050611a18816119f2565b92915050565b60008060408385031215611a3557611a34611958565b5b6000611a4385828601611a09565b9250506020611a548582860161197e565b9150509250929050565b6000819050919050565b6000611a83611a7e611a79846119c0565b611a5e565b6119c0565b9050919050565b6000611a9582611a68565b9050919050565b6000611aa782611a8a565b9050919050565b611ab781611a9c565b82525050565b6000602082019050611ad26000830184611aae565b92915050565b600060208284031215611aee57611aed611958565b5b6000611afc84828501611a09565b91505092915050565b60006bffffffffffffffffffffffff82169050919050565b611b2681611b05565b82525050565b6000602082019050611b416000830184611b1d565b92915050565b611b508161195d565b82525050565b6000602082019050611b6b6000830184611b47565b92915050565b6000611b7c826119e0565b9050919050565b611b8c81611b71565b8114611b9757600080fd5b50565b600081359050611ba981611b83565b92915050565b600060208284031215611bc557611bc4611958565b5b6000611bd384828501611b9a565b91505092915050565b611be5816119e0565b82525050565b6000602082019050611c006000830184611bdc565b92915050565b6000611c1182611a8a565b9050919050565b611c2181611c06565b82525050565b6000602082019050611c3c6000830184611c18565b92915050565b6000611c4d82611a8a565b9050919050565b611c5d81611c42565b82525050565b6000602082019050611c786000830184611c54565b92915050565b600082825260208201905092915050565b7f5269736b206d616e61676572206e6f7420617070726f76656400000000000000600082015250565b6000611cc5601983611c7e565b9150611cd082611c8f565b602082019050919050565b60006020820190508181036000830152611cf481611cb8565b9050919050565b6000604082019050611d106000830185611bdc565b611d1d6020830184611b47565b9392505050565b7f5269736b206d616e61676572206973206e65697468657220617070726f76656460008201527f206e6f72207769746820612070656e64696e6720617070726f76616c00000000602082015250565b6000611d80603c83611c7e565b9150611d8b82611d24565b604082019050919050565b60006020820190508181036000830152611daf81611d73565b9050919050565b611dbf81611b05565b8114611dca57600080fd5b50565b600081519050611ddc81611db6565b92915050565b600060208284031215611df857611df7611958565b5b6000611e0684828501611dcd565b91505092915050565b7f4e487b7100000000000000000000000000000000000000000000000000000000600052601160045260246000fd5b6000611e498261195d565b9150611e548361195d565b9250817fffffffffffffffffffffffffffffffffffffffffffffffffffffffffffffffff0483118215151615611e8d57611e8c611e0f565b5b828202905092915050565b7f4e487b7100000000000000000000000000000000000000000000000000000000600052601260045260246000fd5b6000611ed28261195d565b9150611edd8361195d565b925082611eed57611eec611e98565b5b828204905092915050565b600081519050611f0781611967565b92915050565b600060208284031215611f2357611f22611958565b5b6000611f3184828501611ef8565b91505092915050565b6000611f4582611a8a565b9050919050565b611f5581611f3a565b82525050565b6000602082019050611f706000830184611f4c565b92915050565b7f506f7274696f6e20746f207365697a65206973206e6f742077697468696e207460008201527f68652072616e67652028302c20315d0000000000000000000000000000000000602082015250565b6000611fd2602f83611c7e565b9150611fdd82611f76565b604082019050919050565b6000602082019050818103600083015261200181611fc5565b9050919050565b7f5269736b206d616e6167657220617070726f76616c206e6f7420696e6974696160008201527f7465640000000000000000000000000000000000000000000000000000000000602082015250565b6000612064602383611c7e565b915061206f82612008565b604082019050919050565b6000602082019050818103600083015261209381612057565b9050919050565b60006120a58261195d565b91506120b08361195d565b9250828210156120c3576120c2611e0f565b5b828203905092915050565b7f5269736b206d616e6167657220676f7665726e616e63652064656c617920686160008201527f73206e6f7420656c617073656400000000000000000000000000000000000000602082015250565b600061212a602d83611c7e565b9150612135826120ce565b604082019050919050565b600060208201905081810360008301526121598161211d565b9050919050565b7f416d6f756e7420746f207365697a65206d757374206265203e30000000000000600082015250565b6000612196601a83611c7e565b91506121a182612160565b602082019050919050565b600060208201905081810360008301526121c581612189565b9050919050565b7f546865206669727374207269736b206d616e61676572206973206e6f7420796560008201527f7420617070726f7665643b20506c656173652075736520617070726f7665466960208201527f7273745269736b4d616e6167657220696e737465616400000000000000000000604082015250565b600061224e605683611c7e565b9150612259826121cc565b606082019050919050565b6000602082019050818103600083015261227d81612241565b9050919050565b7f5269736b206d616e6167657220616c726561647920617070726f766564000000600082015250565b60006122ba601d83611c7e565b91506122c582612284565b602082019050919050565b600060208201905081810360008301526122e9816122ad565b9050919050565b7f546865206669727374207269736b206d616e616765722077617320617070726f60008201527f7665640000000000000000000000000000000000000000000000000000000000602082015250565b600061234c602383611c7e565b9150612357826122f0565b604082019050919050565b6000602082019050818103600083015261237b8161233f565b9050919050565b7f4f776e61626c653a206e6577206f776e657220697320746865207a65726f206160008201527f6464726573730000000000000000000000000000000000000000000000000000602082015250565b60006123de602683611c7e565b91506123e982612382565b604082019050919050565b6000602082019050818103600083015261240d816123d1565b9050919050565b7f4f776e61626c653a2063616c6c6572206973206e6f7420746865206f776e6572600082015250565b600061244a602083611c7e565b915061245582612414565b602082019050919050565b600060208201905081810360008301526124798161243d565b9050919050565b7f4368616e6765206e6f7420696e69746961746564000000000000000000000000600082015250565b60006124b6601483611c7e565b91506124c182612480565b602082019050919050565b600060208201905081810360008301526124e5816124a9565b905091905056fea2646970667358221220ec205cb71546993cf5a2a6b6040e8c2992a7fa4c20445f6280393e2db7e83c8864736f6c63430008090033",
  "devdoc": {
    "details": "Coverage pool contract is owned by the governance. Coverage pool is the      owner of the asset pool contract.",
    "kind": "dev",
    "methods": {
      "amountToSeize(uint256)": {
        "params": {
          "portionToSeize": "Portion of the pool to seize in the range (0, 1]        multiplied by FLOATING_POINT_DIVISOR"
        }
      },
      "approveFirstRiskManager(address)": {
        "details": "Can be called only by the contract owner. Can be called only once.      Does not require any further calls to any functions.",
        "params": {
          "riskManager": "Risk manager that will be approved"
        }
      },
      "approveNewAssetPoolUpgrade(address)": {
        "params": {
          "_newAssetPool": "New asset pool"
        }
      },
      "beginRiskManagerApproval(address)": {
        "details": "Can be called only by the contract owner and only when the first      risk manager is already approved. For a risk manager to be      approved, a call to `finalizeRiskManagerApproval` must follow      (after a governance delay).",
        "params": {
          "riskManager": "Risk manager that will be approved"
        }
      },
      "beginWithdrawalDelayUpdate(uint256)": {
        "params": {
          "newWithdrawalDelay": "The new value of withdrawal delay"
        }
      },
      "beginWithdrawalTimeoutUpdate(uint256)": {
        "params": {
          "newWithdrawalTimeout": "The new value of the withdrawal timeout"
        }
      },
      "finalizeRiskManagerApproval(address)": {
        "details": "Can be called only by the contract owner. Must be preceded with a      call to beginRiskManagerApproval and a governance delay must elapse.",
        "params": {
          "riskManager": "Risk manager that will be approved"
        }
      },
      "getPastVotes(address,uint256)": {
        "params": {
          "account": "The underwriter address to check",
          "blockNumber": "The block number to get the vote balance at"
        },
        "returns": {
          "_0": "The number of votes the underwriter had as of the given block"
        }
      },
      "getRemainingRiskManagerApprovalTime(address)": {
        "params": {
          "riskManager": "Risk manager in the process of approval"
        },
        "returns": {
          "_0": "Remaining time in seconds."
        }
      },
      "grantAssetPoolShares(address,uint256)": {
        "details": "Can be called only by an approved risk manager.",
        "params": {
          "covAmount": "Amount of the underwriter tokens which should be minted",
          "recipient": "Address of the underwriter tokens recipient"
        }
      },
      "owner()": {
        "details": "Returns the address of the current owner."
      },
      "renounceOwnership()": {
        "details": "Leaves the contract without owner. It will not be possible to call `onlyOwner` functions anymore. Can only be called by the current owner. NOTE: Renouncing ownership will leave the contract without an owner, thereby removing any functionality that is only available to the owner."
      },
      "seizeAmount(address,uint256)": {
        "params": {
          "amountToSeize": "Amount to be seized from the pool",
          "recipient": "Address that will receive the pool's seized funds"
        }
      },
      "seizePortion(address,uint256)": {
        "details": "`portionToSeize` value was multiplied by `FLOATING_POINT_DIVISOR`      for calculation precision purposes. Further calculations in this      function will need to take this divisor into account.",
        "params": {
          "portionToSeize": "Portion of the pool to seize in the range (0, 1]        multiplied by `FLOATING_POINT_DIVISOR`",
          "recipient": "Address that will receive the pool's seized funds"
        }
      },
      "transferOwnership(address)": {
        "details": "Transfers ownership of the contract to a new account (`newOwner`). Can only be called by the current owner."
      },
      "unapproveRiskManager(address)": {
        "details": "Can be called only by the contract owner.",
        "params": {
          "riskManager": "Risk manager that will be unapproved"
        }
      }
    },
    "title": "Coverage Pool",
    "version": 1
  },
  "userdoc": {
    "kind": "user",
    "methods": {
      "amountToSeize(uint256)": {
        "notice": "Calculates amount of tokens to be seized from the coverage pool."
      },
      "approveFirstRiskManager(address)": {
        "notice": "Approves the first risk manager"
      },
      "approveNewAssetPoolUpgrade(address)": {
        "notice": "Approves upgradeability to the new asset pool.         Allows governance to set a new asset pool so the underwriters         can move their collateral tokens to a new asset pool without         having to wait for the withdrawal delay."
      },
      "beginRiskManagerApproval(address)": {
        "notice": "Begins risk manager approval process."
      },
      "beginWithdrawalDelayUpdate(uint256)": {
        "notice": "Lets the governance to begin an update of withdrawal delay         parameter value. Withdrawal delay is the time it takes the         underwriter to withdraw their collateral and rewards from the         pool. This is the time that needs to pass between initiating and         completing the withdrawal. The change needs to be finalized with         a call to finalizeWithdrawalDelayUpdate after the required         governance delay passes. It is up to the governance to         decide what the withdrawal delay value should be but it should         be long enough so that the possibility of having free-riding         underwriters escaping from a potential coverage claim by         withdrawing their positions from the pool is negligible."
      },
      "beginWithdrawalTimeoutUpdate(uint256)": {
        "notice": "Lets the governance to begin an update of withdrawal timeout         parameter value. The withdrawal timeout is the time the         underwriter has - after the withdrawal delay passed - to         complete the withdrawal. The change needs to be finalized with         a call to finalizeWithdrawalTimeoutUpdate after the required         governance delay passes. It is up to the governance to         decide what the withdrawal timeout value should be but it should         be short enough so that the time of free-riding by being able to         immediately escape from the claim is minimal and long enough so         that honest underwriters have a possibility to finalize the         withdrawal. It is all about the right proportions with         a relation to withdrawal delay value."
      },
      "finalizeRiskManagerApproval(address)": {
        "notice": "Finalizes risk manager approval process."
      },
      "finalizeWithdrawalDelayUpdate()": {
        "notice": "Lets the governance to finalize an update of withdrawal         delay parameter value. This call has to be preceded with         a call to beginWithdrawalDelayUpdate and the governance delay         has to pass."
      },
      "finalizeWithdrawalTimeoutUpdate()": {
        "notice": "Lets the governance to finalize an update of withdrawal         timeout parameter value. This call has to be preceded with         a call to beginWithdrawalTimeoutUpdate and the governance delay         has to pass."
      },
      "getPastVotes(address,uint256)": {
        "notice": "Determine the prior number of DAO votes for the given coverage         pool underwriter."
      },
      "getRemainingRiskManagerApprovalTime(address)": {
        "notice": "Returns the time remaining until the risk manager approval         process can be finalized"
      },
      "grantAssetPoolShares(address,uint256)": {
        "notice": "Grants asset pool shares by minting a given amount of the         underwriter tokens for the recipient address. In result, the         recipient obtains part of the pool ownership without depositing         any collateral tokens. Shares are usually granted for notifiers         reporting about various contract state changes."
      },
      "seizeAmount(address,uint256)": {
        "notice": "Seizes funds from the coverage pool and sends them to the         `recipient`."
      },
      "seizePortion(address,uint256)": {
        "notice": "Seizes funds from the coverage pool and sends them to the         `recipient`."
      },
      "unapproveRiskManager(address)": {
        "notice": "Unapproves an already approved risk manager or cancels the         approval process of a risk manager (the latter happens if called         between `beginRiskManagerApproval` and `finalizeRiskManagerApproval`).         The change takes effect immediately."
      }
    },
    "notice": "A contract that manages a single asset pool. Handles approving and         unapproving of risk managers and allows them to seize funds from the         asset pool if they are approved.",
    "version": 1
  },
  "storageLayout": {
    "storage": [
      {
        "astId": 488,
        "contract": "contracts/CoveragePool.sol:CoveragePool",
        "label": "_owner",
        "offset": 0,
        "slot": "0",
        "type": "t_address"
      },
      {
        "astId": 7742,
        "contract": "contracts/CoveragePool.sol:CoveragePool",
        "label": "firstRiskManagerApproved",
        "offset": 20,
        "slot": "0",
        "type": "t_bool"
      },
      {
        "astId": 7746,
        "contract": "contracts/CoveragePool.sol:CoveragePool",
        "label": "approvedRiskManagers",
        "offset": 0,
        "slot": "1",
        "type": "t_mapping(t_address,t_bool)"
      },
      {
        "astId": 7750,
        "contract": "contracts/CoveragePool.sol:CoveragePool",
        "label": "riskManagerApprovalTimestamps",
        "offset": 0,
        "slot": "2",
        "type": "t_mapping(t_address,t_uint256)"
      }
    ],
    "types": {
      "t_address": {
        "encoding": "inplace",
        "label": "address",
        "numberOfBytes": "20"
      },
      "t_bool": {
        "encoding": "inplace",
        "label": "bool",
        "numberOfBytes": "1"
      },
      "t_mapping(t_address,t_bool)": {
        "encoding": "mapping",
        "key": "t_address",
        "label": "mapping(address => bool)",
        "numberOfBytes": "32",
        "value": "t_bool"
      },
      "t_mapping(t_address,t_uint256)": {
        "encoding": "mapping",
        "key": "t_address",
        "label": "mapping(address => uint256)",
        "numberOfBytes": "32",
        "value": "t_uint256"
      },
      "t_uint256": {
        "encoding": "inplace",
        "label": "uint256",
        "numberOfBytes": "32"
      }
    }
  }
}