{
  "address": "0xD4FD81D7a16320Ca029389a728327918bdc086b6",
  "abi": [
    {
      "inputs": [
        {
          "internalType": "contract IERC20",
          "name": "_rewardToken",
          "type": "address"
        },
        {
          "internalType": "address",
          "name": "_assetPool",
          "type": "address"
        },
        {
          "internalType": "address",
          "name": "owner",
          "type": "address"
        }
      ],
      "stateMutability": "nonpayable",
      "type": "constructor"
    },
    {
      "anonymous": false,
      "inputs": [
        {
          "indexed": true,
          "internalType": "address",
          "name": "previousOwner",
          "type": "address"
        },
        {
          "indexed": true,
          "internalType": "address",
          "name": "newOwner",
          "type": "address"
        }
      ],
      "name": "OwnershipTransferred",
      "type": "event"
    },
    {
      "anonymous": false,
      "inputs": [
        {
          "indexed": false,
          "internalType": "uint256",
          "name": "amount",
          "type": "uint256"
        }
      ],
      "name": "RewardToppedUp",
      "type": "event"
    },
    {
      "anonymous": false,
      "inputs": [
        {
          "indexed": false,
          "internalType": "uint256",
          "name": "amount",
          "type": "uint256"
        }
      ],
      "name": "RewardWithdrawn",
      "type": "event"
    },
    {
      "inputs": [],
      "name": "DURATION",
      "outputs": [
        {
          "internalType": "uint256",
          "name": "",
          "type": "uint256"
        }
      ],
      "stateMutability": "view",
      "type": "function"
    },
    {
      "inputs": [],
      "name": "assetPool",
      "outputs": [
        {
          "internalType": "address",
          "name": "",
          "type": "address"
        }
      ],
      "stateMutability": "view",
      "type": "function"
    },
    {
      "inputs": [],
      "name": "earned",
      "outputs": [
        {
          "internalType": "uint256",
          "name": "",
          "type": "uint256"
        }
      ],
      "stateMutability": "view",
      "type": "function"
    },
    {
      "inputs": [],
      "name": "intervalFinish",
      "outputs": [
        {
          "internalType": "uint256",
          "name": "",
          "type": "uint256"
        }
      ],
      "stateMutability": "view",
      "type": "function"
    },
    {
      "inputs": [],
      "name": "lastTimeRewardApplicable",
      "outputs": [
        {
          "internalType": "uint256",
          "name": "",
          "type": "uint256"
        }
      ],
      "stateMutability": "view",
      "type": "function"
    },
    {
      "inputs": [],
      "name": "lastUpdateTime",
      "outputs": [
        {
          "internalType": "uint256",
          "name": "",
          "type": "uint256"
        }
      ],
      "stateMutability": "view",
      "type": "function"
    },
    {
      "inputs": [],
      "name": "owner",
      "outputs": [
        {
          "internalType": "address",
          "name": "",
          "type": "address"
        }
      ],
      "stateMutability": "view",
      "type": "function"
    },
    {
      "inputs": [],
      "name": "renounceOwnership",
      "outputs": [],
      "stateMutability": "nonpayable",
      "type": "function"
    },
    {
      "inputs": [],
      "name": "rewardAccumulated",
      "outputs": [
        {
          "internalType": "uint256",
          "name": "",
          "type": "uint256"
        }
      ],
      "stateMutability": "view",
      "type": "function"
    },
    {
      "inputs": [],
      "name": "rewardRate",
      "outputs": [
        {
          "internalType": "uint256",
          "name": "",
          "type": "uint256"
        }
      ],
      "stateMutability": "view",
      "type": "function"
    },
    {
      "inputs": [],
      "name": "rewardToken",
      "outputs": [
        {
          "internalType": "contract IERC20",
          "name": "",
          "type": "address"
        }
      ],
      "stateMutability": "view",
      "type": "function"
    },
    {
      "inputs": [
        {
          "internalType": "uint256",
          "name": "reward",
          "type": "uint256"
        }
      ],
      "name": "topUpReward",
      "outputs": [],
      "stateMutability": "nonpayable",
      "type": "function"
    },
    {
      "inputs": [
        {
          "internalType": "address",
          "name": "newOwner",
          "type": "address"
        }
      ],
      "name": "transferOwnership",
      "outputs": [],
      "stateMutability": "nonpayable",
      "type": "function"
    },
    {
      "inputs": [],
      "name": "withdraw",
      "outputs": [],
      "stateMutability": "nonpayable",
      "type": "function"
    }
  ],
  "transactionHash": "0xbae34bc7500798b756037272f79a4915c2f85cdfa12b073732a9b804d3d7de36",
  "args": [
    "0xCdF7028ceAB81fA0C6971208e83fa7872994beE5",
    "0x21b86FDC93F23fD52022A283828dF8E808D28D5D",
    "0x123694886DBf5Ac94DDA07135349534536D14cAf"
  ],
  "numDeployments": 1,
  "bytecode": "0x60c060405260006001556000600255600060035560006004553480156200002557600080fd5b506040516200180a3803806200180a83398181016040528101906200004b9190620003b9565b6200006b6200005f620000ed60201b60201c565b620000f560201b60201c565b8273ffffffffffffffffffffffffffffffffffffffff1660808173ffffffffffffffffffffffffffffffffffffffff16815250508173ffffffffffffffffffffffffffffffffffffffff1660a08173ffffffffffffffffffffffffffffffffffffffff1681525050620000e481620001b960201b60201c565b50505062000530565b600033905090565b60008060009054906101000a900473ffffffffffffffffffffffffffffffffffffffff169050816000806101000a81548173ffffffffffffffffffffffffffffffffffffffff021916908373ffffffffffffffffffffffffffffffffffffffff1602179055508173ffffffffffffffffffffffffffffffffffffffff168173ffffffffffffffffffffffffffffffffffffffff167f8be0079c531659141344cd1fd0a4f28419497f9722a3daafe3b4186f6b6457e060405160405180910390a35050565b620001c96200025060201b60201c565b600073ffffffffffffffffffffffffffffffffffffffff168173ffffffffffffffffffffffffffffffffffffffff1614156200023c576040517f08c379a000000000000000000000000000000000000000000000000000000000815260040162000233906200049c565b60405180910390fd5b6200024d81620000f560201b60201c565b50565b62000260620000ed60201b60201c565b73ffffffffffffffffffffffffffffffffffffffff1662000286620002e160201b60201c565b73ffffffffffffffffffffffffffffffffffffffff1614620002df576040517f08c379a0000000000000000000000000000000000000000000000000000000008152600401620002d6906200050e565b60405180910390fd5b565b60008060009054906101000a900473ffffffffffffffffffffffffffffffffffffffff16905090565b600080fd5b600073ffffffffffffffffffffffffffffffffffffffff82169050919050565b60006200033c826200030f565b9050919050565b600062000350826200032f565b9050919050565b620003628162000343565b81146200036e57600080fd5b50565b600081519050620003828162000357565b92915050565b62000393816200032f565b81146200039f57600080fd5b50565b600081519050620003b38162000388565b92915050565b600080600060608486031215620003d557620003d46200030a565b5b6000620003e58682870162000371565b9350506020620003f886828701620003a2565b92505060406200040b86828701620003a2565b9150509250925092565b600082825260208201905092915050565b7f4f776e61626c653a206e6577206f776e657220697320746865207a65726f206160008201527f6464726573730000000000000000000000000000000000000000000000000000602082015250565b60006200048460268362000415565b9150620004918262000426565b604082019050919050565b60006020820190508181036000830152620004b78162000475565b9050919050565b7f4f776e61626c653a2063616c6c6572206973206e6f7420746865206f776e6572600082015250565b6000620004f660208362000415565b91506200050382620004be565b602082019050919050565b600060208201905081810360008301526200052981620004e7565b9050919050565b60805160a05161129f6200056b6000396000818161039301526104130152600081816103420152818161043501526105a0015261129f6000f3fe608060405234801561001057600080fd5b50600436106100ea5760003560e01c806380faa57d1161008c578063c910d95011610066578063c910d950146101f1578063d6f192621461020f578063f2fde38b1461022d578063f7c618c114610249576100ea565b806380faa57d146101975780638da5cb5b146101b5578063c8f33c91146101d3576100ea565b80633ccfd60b116100c85780633ccfd60b146101475780636e9a204b14610151578063715018a61461016f5780637b0a47ee14610179576100ea565b80630e807056146100ef5780631be052891461010b5780632ec939f914610129575b600080fd5b61010960048036038101906101049190610b04565b610267565b005b61011361038a565b6040516101209190610b40565b60405180910390f35b610131610391565b60405161013e9190610b9c565b60405180910390f35b61014f6103b5565b005b61015961047c565b6040516101669190610b40565b60405180910390f35b610177610482565b005b610181610496565b60405161018e9190610b40565b60405180910390f35b61019f61049c565b6040516101ac9190610b40565b60405180910390f35b6101bd6104af565b6040516101ca9190610b9c565b60405180910390f35b6101db6104d8565b6040516101e89190610b40565b60405180910390f35b6101f96104de565b6040516102069190610b40565b60405180910390f35b6102176104e4565b6040516102249190610b40565b60405180910390f35b61024760048036038101906102429190610be3565b61051a565b005b61025161059e565b60405161025e9190610c6f565b60405180910390f35b61026f6105c2565b6102776104e4565b60038190555060015442106102a05762093a80816102959190610ce8565b6002819055506102e7565b6000426001546102b09190610d19565b90506000600254826102c29190610d4d565b905062093a8081846102d49190610da7565b6102de9190610ce8565b60028190555050505b62093a80426102f69190610da7565b600181905550426004819055507fb32714d475c9d2f568d4ff24e88d0056b93256b5a04fbdb53a57f26bb765fbed816040516103329190610b40565b60405180910390a16103873330837f000000000000000000000000000000000000000000000000000000000000000073ffffffffffffffffffffffffffffffffffffffff16610640909392919063ffffffff16565b50565b62093a8081565b7f000000000000000000000000000000000000000000000000000000000000000081565b60006103bf6104e4565b905060006003819055506103d161049c565b6004819055507f150a6ec0e6f4e9ddcaaaa1674f157d91165a42d60653016f87a9fc870a39f050816040516104069190610b40565b60405180910390a16104797f0000000000000000000000000000000000000000000000000000000000000000827f000000000000000000000000000000000000000000000000000000000000000073ffffffffffffffffffffffffffffffffffffffff166106c99092919063ffffffff16565b50565b60035481565b61048a6105c2565b610494600061074f565b565b60025481565b60006104aa42600154610813565b905090565b60008060009054906101000a900473ffffffffffffffffffffffffffffffffffffffff16905090565b60045481565b60015481565b60006002546004546104f461049c565b6104fe9190610d19565b6105089190610d4d565b6003546105159190610da7565b905090565b6105226105c2565b600073ffffffffffffffffffffffffffffffffffffffff168173ffffffffffffffffffffffffffffffffffffffff161415610592576040517f08c379a000000000000000000000000000000000000000000000000000000000815260040161058990610e80565b60405180910390fd5b61059b8161074f565b50565b7f000000000000000000000000000000000000000000000000000000000000000081565b6105ca61082c565b73ffffffffffffffffffffffffffffffffffffffff166105e86104af565b73ffffffffffffffffffffffffffffffffffffffff161461063e576040517f08c379a000000000000000000000000000000000000000000000000000000000815260040161063590610eec565b60405180910390fd5b565b6106c3846323b872dd60e01b85858560405160240161066193929190610f0c565b604051602081830303815290604052907bffffffffffffffffffffffffffffffffffffffffffffffffffffffff19166020820180517bffffffffffffffffffffffffffffffffffffffffffffffffffffffff8381831617835250505050610834565b50505050565b61074a8363a9059cbb60e01b84846040516024016106e8929190610f43565b604051602081830303815290604052907bffffffffffffffffffffffffffffffffffffffffffffffffffffffff19166020820180517bffffffffffffffffffffffffffffffffffffffffffffffffffffffff8381831617835250505050610834565b505050565b60008060009054906101000a900473ffffffffffffffffffffffffffffffffffffffff169050816000806101000a81548173ffffffffffffffffffffffffffffffffffffffff021916908373ffffffffffffffffffffffffffffffffffffffff1602179055508173ffffffffffffffffffffffffffffffffffffffff168173ffffffffffffffffffffffffffffffffffffffff167f8be0079c531659141344cd1fd0a4f28419497f9722a3daafe3b4186f6b6457e060405160405180910390a35050565b60008183106108225781610824565b825b905092915050565b600033905090565b6000610896826040518060400160405280602081526020017f5361666545524332303a206c6f772d6c6576656c2063616c6c206661696c65648152508573ffffffffffffffffffffffffffffffffffffffff166108fb9092919063ffffffff16565b90506000815111156108f657808060200190518101906108b69190610fa4565b6108f5576040517f08c379a00000000000000000000000000000000000000000000000000000000081526004016108ec90611043565b60405180910390fd5b5b505050565b606061090a8484600085610913565b90509392505050565b606082471015610958576040517f08c379a000000000000000000000000000000000000000000000000000000000815260040161094f906110d5565b60405180910390fd5b6000808673ffffffffffffffffffffffffffffffffffffffff168587604051610981919061116f565b60006040518083038185875af1925050503d80600081146109be576040519150601f19603f3d011682016040523d82523d6000602084013e6109c3565b606091505b50915091506109d4878383876109e0565b92505050949350505050565b60608315610a4357600083511415610a3b576109fb85610a56565b610a3a576040517f08c379a0000000000000000000000000000000000000000000000000000000008152600401610a31906111d2565b60405180910390fd5b5b829050610a4e565b610a4d8383610a79565b5b949350505050565b6000808273ffffffffffffffffffffffffffffffffffffffff163b119050919050565b600082511115610a8c5781518083602001fd5b806040517f08c379a0000000000000000000000000000000000000000000000000000000008152600401610ac09190611247565b60405180910390fd5b600080fd5b6000819050919050565b610ae181610ace565b8114610aec57600080fd5b50565b600081359050610afe81610ad8565b92915050565b600060208284031215610b1a57610b19610ac9565b5b6000610b2884828501610aef565b91505092915050565b610b3a81610ace565b82525050565b6000602082019050610b556000830184610b31565b92915050565b600073ffffffffffffffffffffffffffffffffffffffff82169050919050565b6000610b8682610b5b565b9050919050565b610b9681610b7b565b82525050565b6000602082019050610bb16000830184610b8d565b92915050565b610bc081610b7b565b8114610bcb57600080fd5b50565b600081359050610bdd81610bb7565b92915050565b600060208284031215610bf957610bf8610ac9565b5b6000610c0784828501610bce565b91505092915050565b6000819050919050565b6000610c35610c30610c2b84610b5b565b610c10565b610b5b565b9050919050565b6000610c4782610c1a565b9050919050565b6000610c5982610c3c565b9050919050565b610c6981610c4e565b82525050565b6000602082019050610c846000830184610c60565b92915050565b7f4e487b7100000000000000000000000000000000000000000000000000000000600052601260045260246000fd5b7f4e487b7100000000000000000000000000000000000000000000000000000000600052601160045260246000fd5b6000610cf382610ace565b9150610cfe83610ace565b925082610d0e57610d0d610c8a565b5b828204905092915050565b6000610d2482610ace565b9150610d2f83610ace565b925082821015610d4257610d41610cb9565b5b828203905092915050565b6000610d5882610ace565b9150610d6383610ace565b9250817fffffffffffffffffffffffffffffffffffffffffffffffffffffffffffffffff0483118215151615610d9c57610d9b610cb9565b5b828202905092915050565b6000610db282610ace565b9150610dbd83610ace565b9250827fffffffffffffffffffffffffffffffffffffffffffffffffffffffffffffffff03821115610df257610df1610cb9565b5b828201905092915050565b600082825260208201905092915050565b7f4f776e61626c653a206e6577206f776e657220697320746865207a65726f206160008201527f6464726573730000000000000000000000000000000000000000000000000000602082015250565b6000610e6a602683610dfd565b9150610e7582610e0e565b604082019050919050565b60006020820190508181036000830152610e9981610e5d565b9050919050565b7f4f776e61626c653a2063616c6c6572206973206e6f7420746865206f776e6572600082015250565b6000610ed6602083610dfd565b9150610ee182610ea0565b602082019050919050565b60006020820190508181036000830152610f0581610ec9565b9050919050565b6000606082019050610f216000830186610b8d565b610f2e6020830185610b8d565b610f3b6040830184610b31565b949350505050565b6000604082019050610f586000830185610b8d565b610f656020830184610b31565b9392505050565b60008115159050919050565b610f8181610f6c565b8114610f8c57600080fd5b50565b600081519050610f9e81610f78565b92915050565b600060208284031215610fba57610fb9610ac9565b5b6000610fc884828501610f8f565b91505092915050565b7f5361666545524332303a204552433230206f7065726174696f6e20646964206e60008201527f6f74207375636365656400000000000000000000000000000000000000000000602082015250565b600061102d602a83610dfd565b915061103882610fd1565b604082019050919050565b6000602082019050818103600083015261105c81611020565b9050919050565b7f416464726573733a20696e73756666696369656e742062616c616e636520666f60008201527f722063616c6c0000000000000000000000000000000000000000000000000000602082015250565b60006110bf602683610dfd565b91506110ca82611063565b604082019050919050565b600060208201905081810360008301526110ee816110b2565b9050919050565b600081519050919050565b600081905092915050565b60005b8381101561112957808201518184015260208101905061110e565b83811115611138576000848401525b50505050565b6000611149826110f5565b6111538185611100565b935061116381856020860161110b565b80840191505092915050565b600061117b828461113e565b915081905092915050565b7f416464726573733a2063616c6c20746f206e6f6e2d636f6e7472616374000000600082015250565b60006111bc601d83610dfd565b91506111c782611186565b602082019050919050565b600060208201905081810360008301526111eb816111af565b9050919050565b600081519050919050565b6000601f19601f8301169050919050565b6000611219826111f2565b6112238185610dfd565b935061123381856020860161110b565b61123c816111fd565b840191505092915050565b60006020820190508181036000830152611261818461120e565b90509291505056fea2646970667358221220c5bae390803cc3f1622719d99fad44d96dace0eca188c3ba7313821ca78e23e664736f6c63430008090033"
}