{
  "address": "0x007854FdCC9c6F748b435e63745599fb1A0dF843",
  "abi": [
    {
      "inputs": [
        {
          "internalType": "string",
          "name": "_name",
          "type": "string"
        },
        {
          "internalType": "string",
          "name": "_symbol",
          "type": "string"
        }
      ],
      "stateMutability": "nonpayable",
      "type": "constructor"
    },
    {
      "anonymous": false,
      "inputs": [
        {
          "indexed": true,
          "internalType": "address",
          "name": "owner",
          "type": "address"
        },
        {
          "indexed": true,
          "internalType": "address",
          "name": "spender",
          "type": "address"
        },
        {
          "indexed": false,
          "internalType": "uint256",
          "name": "value",
          "type": "uint256"
        }
      ],
      "name": "Approval",
      "type": "event"
    },
    {
      "anonymous": false,
      "inputs": [
        {
          "indexed": true,
          "internalType": "address",
          "name": "delegator",
          "type": "address"
        },
        {
          "indexed": true,
          "internalType": "address",
          "name": "fromDelegate",
          "type": "address"
        },
        {
          "indexed": true,
          "internalType": "address",
          "name": "toDelegate",
          "type": "address"
        }
      ],
      "name": "DelegateChanged",
      "type": "event"
    },
    {
      "anonymous": false,
      "inputs": [
        {
          "indexed": true,
          "internalType": "address",
          "name": "delegate",
          "type": "address"
        },
        {
          "indexed": false,
          "internalType": "uint256",
          "name": "previousBalance",
          "type": "uint256"
        },
        {
          "indexed": false,
          "internalType": "uint256",
          "name": "newBalance",
          "type": "uint256"
        }
      ],
      "name": "DelegateVotesChanged",
      "type": "event"
    },
    {
      "anonymous": false,
      "inputs": [
        {
          "indexed": true,
          "internalType": "address",
          "name": "previousOwner",
          "type": "address"
        },
        {
          "indexed": true,
          "internalType": "address",
          "name": "newOwner",
          "type": "address"
        }
      ],
      "name": "OwnershipTransferred",
      "type": "event"
    },
    {
      "anonymous": false,
      "inputs": [
        {
          "indexed": true,
          "internalType": "address",
          "name": "from",
          "type": "address"
        },
        {
          "indexed": true,
          "internalType": "address",
          "name": "to",
          "type": "address"
        },
        {
          "indexed": false,
          "internalType": "uint256",
          "name": "value",
          "type": "uint256"
        }
      ],
      "name": "Transfer",
      "type": "event"
    },
    {
      "inputs": [],
      "name": "DELEGATION_TYPEHASH",
      "outputs": [
        {
          "internalType": "bytes32",
          "name": "",
          "type": "bytes32"
        }
      ],
      "stateMutability": "view",
      "type": "function"
    },
    {
      "inputs": [],
      "name": "DOMAIN_SEPARATOR",
      "outputs": [
        {
          "internalType": "bytes32",
          "name": "",
          "type": "bytes32"
        }
      ],
      "stateMutability": "view",
      "type": "function"
    },
    {
      "inputs": [],
      "name": "PERMIT_TYPEHASH",
      "outputs": [
        {
          "internalType": "bytes32",
          "name": "",
          "type": "bytes32"
        }
      ],
      "stateMutability": "view",
      "type": "function"
    },
    {
      "inputs": [
        {
          "internalType": "address",
          "name": "",
          "type": "address"
        },
        {
          "internalType": "address",
          "name": "",
          "type": "address"
        }
      ],
      "name": "allowance",
      "outputs": [
        {
          "internalType": "uint256",
          "name": "",
          "type": "uint256"
        }
      ],
      "stateMutability": "view",
      "type": "function"
    },
    {
      "inputs": [
        {
          "internalType": "address",
          "name": "spender",
          "type": "address"
        },
        {
          "internalType": "uint256",
          "name": "amount",
          "type": "uint256"
        }
      ],
      "name": "approve",
      "outputs": [
        {
          "internalType": "bool",
          "name": "",
          "type": "bool"
        }
      ],
      "stateMutability": "nonpayable",
      "type": "function"
    },
    {
      "inputs": [
        {
          "internalType": "address",
          "name": "spender",
          "type": "address"
        },
        {
          "internalType": "uint256",
          "name": "amount",
          "type": "uint256"
        },
        {
          "internalType": "bytes",
          "name": "extraData",
          "type": "bytes"
        }
      ],
      "name": "approveAndCall",
      "outputs": [
        {
          "internalType": "bool",
          "name": "",
          "type": "bool"
        }
      ],
      "stateMutability": "nonpayable",
      "type": "function"
    },
    {
      "inputs": [
        {
          "internalType": "address",
          "name": "",
          "type": "address"
        }
      ],
      "name": "balanceOf",
      "outputs": [
        {
          "internalType": "uint256",
          "name": "",
          "type": "uint256"
        }
      ],
      "stateMutability": "view",
      "type": "function"
    },
    {
      "inputs": [
        {
          "internalType": "uint256",
          "name": "amount",
          "type": "uint256"
        }
      ],
      "name": "burn",
      "outputs": [],
      "stateMutability": "nonpayable",
      "type": "function"
    },
    {
      "inputs": [
        {
          "internalType": "address",
          "name": "account",
          "type": "address"
        },
        {
          "internalType": "uint256",
          "name": "amount",
          "type": "uint256"
        }
      ],
      "name": "burnFrom",
      "outputs": [],
      "stateMutability": "nonpayable",
      "type": "function"
    },
    {
      "inputs": [],
      "name": "cachedChainId",
      "outputs": [
        {
          "internalType": "uint256",
          "name": "",
          "type": "uint256"
        }
      ],
      "stateMutability": "view",
      "type": "function"
    },
    {
      "inputs": [],
      "name": "cachedDomainSeparator",
      "outputs": [
        {
          "internalType": "bytes32",
          "name": "",
          "type": "bytes32"
        }
      ],
      "stateMutability": "view",
      "type": "function"
    },
    {
      "inputs": [
        {
          "internalType": "address",
          "name": "account",
          "type": "address"
        },
        {
          "internalType": "uint32",
          "name": "pos",
          "type": "uint32"
        }
      ],
      "name": "checkpoints",
      "outputs": [
        {
          "components": [
            {
              "internalType": "uint32",
              "name": "fromBlock",
              "type": "uint32"
            },
            {
              "internalType": "uint96",
              "name": "votes",
              "type": "uint96"
            }
          ],
          "internalType": "struct Checkpoints.Checkpoint",
          "name": "checkpoint",
          "type": "tuple"
        }
      ],
      "stateMutability": "view",
      "type": "function"
    },
    {
      "inputs": [],
      "name": "decimals",
      "outputs": [
        {
          "internalType": "uint8",
          "name": "",
          "type": "uint8"
        }
      ],
      "stateMutability": "view",
      "type": "function"
    },
    {
      "inputs": [
        {
          "internalType": "address",
          "name": "delegatee",
          "type": "address"
        }
      ],
      "name": "delegate",
      "outputs": [],
      "stateMutability": "nonpayable",
      "type": "function"
    },
    {
      "inputs": [
        {
          "internalType": "address",
          "name": "signatory",
          "type": "address"
        },
        {
          "internalType": "address",
          "name": "delegatee",
          "type": "address"
        },
        {
          "internalType": "uint256",
          "name": "deadline",
          "type": "uint256"
        },
        {
          "internalType": "uint8",
          "name": "v",
          "type": "uint8"
        },
        {
          "internalType": "bytes32",
          "name": "r",
          "type": "bytes32"
        },
        {
          "internalType": "bytes32",
          "name": "s",
          "type": "bytes32"
        }
      ],
      "name": "delegateBySig",
      "outputs": [],
      "stateMutability": "nonpayable",
      "type": "function"
    },
    {
      "inputs": [
        {
          "internalType": "address",
          "name": "account",
          "type": "address"
        }
      ],
      "name": "delegates",
      "outputs": [
        {
          "internalType": "address",
          "name": "",
          "type": "address"
        }
      ],
      "stateMutability": "view",
      "type": "function"
    },
    {
      "inputs": [
        {
          "internalType": "uint256",
          "name": "blockNumber",
          "type": "uint256"
        }
      ],
      "name": "getPastTotalSupply",
      "outputs": [
        {
          "internalType": "uint96",
          "name": "",
          "type": "uint96"
        }
      ],
      "stateMutability": "view",
      "type": "function"
    },
    {
      "inputs": [
        {
          "internalType": "address",
          "name": "account",
          "type": "address"
        },
        {
          "internalType": "uint256",
          "name": "blockNumber",
          "type": "uint256"
        }
      ],
      "name": "getPastVotes",
      "outputs": [
        {
          "internalType": "uint96",
          "name": "",
          "type": "uint96"
        }
      ],
      "stateMutability": "view",
      "type": "function"
    },
    {
      "inputs": [
        {
          "internalType": "address",
          "name": "account",
          "type": "address"
        }
      ],
      "name": "getVotes",
      "outputs": [
        {
          "internalType": "uint96",
          "name": "",
          "type": "uint96"
        }
      ],
      "stateMutability": "view",
      "type": "function"
    },
    {
      "inputs": [
        {
          "internalType": "address",
          "name": "recipient",
          "type": "address"
        },
        {
          "internalType": "uint256",
          "name": "amount",
          "type": "uint256"
        }
      ],
      "name": "mint",
      "outputs": [],
      "stateMutability": "nonpayable",
      "type": "function"
    },
    {
      "inputs": [],
      "name": "name",
      "outputs": [
        {
          "internalType": "string",
          "name": "",
          "type": "string"
        }
      ],
      "stateMutability": "view",
      "type": "function"
    },
    {
      "inputs": [
        {
          "internalType": "address",
          "name": "",
          "type": "address"
        }
      ],
      "name": "nonce",
      "outputs": [
        {
          "internalType": "uint256",
          "name": "",
          "type": "uint256"
        }
      ],
      "stateMutability": "view",
      "type": "function"
    },
    {
      "inputs": [
        {
          "internalType": "address",
          "name": "account",
          "type": "address"
        }
      ],
      "name": "numCheckpoints",
      "outputs": [
        {
          "internalType": "uint32",
          "name": "",
          "type": "uint32"
        }
      ],
      "stateMutability": "view",
      "type": "function"
    },
    {
      "inputs": [],
      "name": "owner",
      "outputs": [
        {
          "internalType": "address",
          "name": "",
          "type": "address"
        }
      ],
      "stateMutability": "view",
      "type": "function"
    },
    {
      "inputs": [
        {
          "internalType": "address",
          "name": "owner",
          "type": "address"
        },
        {
          "internalType": "address",
          "name": "spender",
          "type": "address"
        },
        {
          "internalType": "uint256",
          "name": "amount",
          "type": "uint256"
        },
        {
          "internalType": "uint256",
          "name": "deadline",
          "type": "uint256"
        },
        {
          "internalType": "uint8",
          "name": "v",
          "type": "uint8"
        },
        {
          "internalType": "bytes32",
          "name": "r",
          "type": "bytes32"
        },
        {
          "internalType": "bytes32",
          "name": "s",
          "type": "bytes32"
        }
      ],
      "name": "permit",
      "outputs": [],
      "stateMutability": "nonpayable",
      "type": "function"
    },
    {
      "inputs": [],
      "name": "renounceOwnership",
      "outputs": [],
      "stateMutability": "nonpayable",
      "type": "function"
    },
    {
      "inputs": [],
      "name": "symbol",
      "outputs": [
        {
          "internalType": "string",
          "name": "",
          "type": "string"
        }
      ],
      "stateMutability": "view",
      "type": "function"
    },
    {
      "inputs": [],
      "name": "totalSupply",
      "outputs": [
        {
          "internalType": "uint256",
          "name": "",
          "type": "uint256"
        }
      ],
      "stateMutability": "view",
      "type": "function"
    },
    {
      "inputs": [
        {
          "internalType": "address",
          "name": "recipient",
          "type": "address"
        },
        {
          "internalType": "uint256",
          "name": "amount",
          "type": "uint256"
        }
      ],
      "name": "transfer",
      "outputs": [
        {
          "internalType": "bool",
          "name": "",
          "type": "bool"
        }
      ],
      "stateMutability": "nonpayable",
      "type": "function"
    },
    {
      "inputs": [
        {
          "internalType": "address",
          "name": "spender",
          "type": "address"
        },
        {
          "internalType": "address",
          "name": "recipient",
          "type": "address"
        },
        {
          "internalType": "uint256",
          "name": "amount",
          "type": "uint256"
        }
      ],
      "name": "transferFrom",
      "outputs": [
        {
          "internalType": "bool",
          "name": "",
          "type": "bool"
        }
      ],
      "stateMutability": "nonpayable",
      "type": "function"
    },
    {
      "inputs": [
        {
          "internalType": "address",
          "name": "newOwner",
          "type": "address"
        }
      ],
      "name": "transferOwnership",
      "outputs": [],
      "stateMutability": "nonpayable",
      "type": "function"
    }
  ],
  "transactionHash": "0x88c54a8d4b60d2ffd05143aa5916af40cbba8a52123001d3f2d9811fd0779633",
  "args": [
    "covT underwriter token",
    "covT"
  ],
  "numDeployments": 1,
  "solcInputHash": "b466ba551e3f54d5eed446f39b17a223",
  "bytecode": "0x60c06040523480156200001157600080fd5b50604051620046d1380380620046d1833981810160405281019062000037919062000479565b8181620000596200004d620000b460201b60201c565b620000bc60201b60201c565b8160059080519060200190620000719291906200022c565b5080600690805190602001906200008a9291906200022c565b504660808181525050620000a36200018060201b60201c565b60a0818152505050505050620006ff565b600033905090565b60008060009054906101000a900473ffffffffffffffffffffffffffffffffffffffff169050816000806101000a81548173ffffffffffffffffffffffffffffffffffffffff021916908373ffffffffffffffffffffffffffffffffffffffff1602179055508173ffffffffffffffffffffffffffffffffffffffff168173ffffffffffffffffffffffffffffffffffffffff167f8be0079c531659141344cd1fd0a4f28419497f9722a3daafe3b4186f6b6457e060405160405180910390a35050565b60007f8b73c3c69bb8fe3d512ecc4cf759cc79239f7b179b0ffacaa9a75d522b39400f6005604051620001b491906200060e565b60405180910390206040518060400160405280600181526020017f310000000000000000000000000000000000000000000000000000000000000081525080519060200120463060405160200162000211959493929190620006a2565b60405160208183030381529060405280519060200120905090565b8280546200023a906200052d565b90600052602060002090601f0160209004810192826200025e5760008555620002aa565b82601f106200027957805160ff1916838001178555620002aa565b82800160010185558215620002aa579182015b82811115620002a95782518255916020019190600101906200028c565b5b509050620002b99190620002bd565b5090565b5b80821115620002d8576000816000905550600101620002be565b5090565b6000604051905090565b600080fd5b600080fd5b600080fd5b600080fd5b6000601f19601f8301169050919050565b7f4e487b7100000000000000000000000000000000000000000000000000000000600052604160045260246000fd5b6200034582620002fa565b810181811067ffffffffffffffff821117156200036757620003666200030b565b5b80604052505050565b60006200037c620002dc565b90506200038a82826200033a565b919050565b600067ffffffffffffffff821115620003ad57620003ac6200030b565b5b620003b882620002fa565b9050602081019050919050565b60005b83811015620003e5578082015181840152602081019050620003c8565b83811115620003f5576000848401525b50505050565b6000620004126200040c846200038f565b62000370565b905082815260208101848484011115620004315762000430620002f5565b5b6200043e848285620003c5565b509392505050565b600082601f8301126200045e576200045d620002f0565b5b815162000470848260208601620003fb565b91505092915050565b60008060408385031215620004935762000492620002e6565b5b600083015167ffffffffffffffff811115620004b457620004b3620002eb565b5b620004c28582860162000446565b925050602083015167ffffffffffffffff811115620004e657620004e5620002eb565b5b620004f48582860162000446565b9150509250929050565b7f4e487b7100000000000000000000000000000000000000000000000000000000600052602260045260246000fd5b600060028204905060018216806200054657607f821691505b602082108114156200055d576200055c620004fe565b5b50919050565b600081905092915050565b60008190508160005260206000209050919050565b6000815462000592816200052d565b6200059e818662000563565b94506001821660008114620005bc5760018114620005ce5762000605565b60ff1983168652818601935062000605565b620005d9856200056e565b60005b83811015620005fd57815481890152600182019150602081019050620005dc565b838801955050505b50505092915050565b60006200061c828462000583565b915081905092915050565b6000819050919050565b6200063c8162000627565b82525050565b6000819050919050565b620006578162000642565b82525050565b600073ffffffffffffffffffffffffffffffffffffffff82169050919050565b60006200068a826200065d565b9050919050565b6200069c816200067d565b82525050565b600060a082019050620006b9600083018862000631565b620006c8602083018762000631565b620006d7604083018662000631565b620006e660608301856200064c565b620006f5608083018462000691565b9695505050505050565b60805160a051613f9e620007336000396000818161086e015261115a0152600081816108460152610b6e0152613f9e6000f3fe608060405234801561001057600080fd5b50600436106101e55760003560e01c8063715018a61161010f578063b20d7fa9116100a2578063dd62ed3e11610071578063dd62ed3e146105ba578063e7a324dc146105ea578063f1127ed814610608578063f2fde38b14610638576101e5565b8063b20d7fa914610534578063b4f94b2e14610550578063cae9ca511461056e578063d505accf1461059e576101e5565b80638e539e8c116100de5780638e539e8c1461048657806395d89b41146104b65780639ab24eb0146104d4578063a9059cbb14610504576101e5565b8063715018a614610424578063771da5c51461042e57806379cc67901461044c5780638da5cb5b14610468576101e5565b80633a46b1a8116101875780635c19a95c116101565780635c19a95c146103785780636fcfff451461039457806370a08231146103c457806370ae92d2146103f4576101e5565b80633a46b1a8146102e057806340c10f191461031057806342966c681461032c578063587cde1e14610348576101e5565b806323b872dd116101c357806323b872dd1461025657806330adf81f14610286578063313ce567146102a45780633644e515146102c2576101e5565b806306fdde03146101ea578063095ea7b31461020857806318160ddd14610238575b600080fd5b6101f2610654565b6040516101ff919061292e565b60405180910390f35b610222600480360381019061021d91906129f8565b6106e2565b60405161022f9190612a53565b60405180910390f35b6102406106f9565b60405161024d9190612a7d565b60405180910390f35b610270600480360381019061026b9190612a98565b6106ff565b60405161027d9190612a53565b60405180910390f35b61028e610819565b60405161029b9190612b04565b60405180910390f35b6102ac61083d565b6040516102b99190612b3b565b60405180910390f35b6102ca610842565b6040516102d79190612b04565b60405180910390f35b6102fa60048036038101906102f591906129f8565b6108a2565b6040516103079190612b7d565b60405180910390f35b61032a600480360381019061032591906129f8565b6108f4565b005b61034660048036038101906103419190612b98565b610a51565b005b610362600480360381019061035d9190612bc5565b610a5e565b60405161036f9190612c01565b60405180910390f35b610392600480360381019061038d9190612bc5565b610ac7565b005b6103ae60048036038101906103a99190612bc5565b610ad4565b6040516103bb9190612c3b565b60405180910390f35b6103de60048036038101906103d99190612bc5565b610b28565b6040516103eb9190612a7d565b60405180910390f35b61040e60048036038101906104099190612bc5565b610b40565b60405161041b9190612a7d565b60405180910390f35b61042c610b58565b005b610436610b6c565b6040516104439190612a7d565b60405180910390f35b610466600480360381019061046191906129f8565b610b90565b005b610470610ca1565b60405161047d9190612c01565b60405180910390f35b6104a0600480360381019061049b9190612b98565b610cca565b6040516104ad9190612b7d565b60405180910390f35b6104be610cde565b6040516104cb919061292e565b60405180910390f35b6104ee60048036038101906104e99190612bc5565b610d6c565b6040516104fb9190612b7d565b60405180910390f35b61051e600480360381019061051991906129f8565b610e63565b60405161052b9190612a53565b60405180910390f35b61054e60048036038101906105499190612cae565b610e7a565b005b610558611158565b6040516105659190612b04565b60405180910390f35b61058860048036038101906105839190612e70565b61117c565b6040516105959190612a53565b60405180910390f35b6105b860048036038101906105b39190612edf565b611213565b005b6105d460048036038101906105cf9190612f81565b6114f7565b6040516105e19190612a7d565b60405180910390f35b6105f261151c565b6040516105ff9190612b04565b60405180910390f35b610622600480360381019061061d9190612fed565b611540565b60405161062f919061307a565b60405180910390f35b610652600480360381019061064d9190612bc5565b611613565b005b60058054610661906130c4565b80601f016020809104026020016040519081016040528092919081815260200182805461068d906130c4565b80156106da5780601f106106af576101008083540402835291602001916106da565b820191906000526020600020905b8154815290600101906020018083116106bd57829003601f168201915b505050505081565b60006106ef338484611697565b6001905092915050565b60045481565b600080600260008673ffffffffffffffffffffffffffffffffffffffff1673ffffffffffffffffffffffffffffffffffffffff16815260200190815260200160002060003373ffffffffffffffffffffffffffffffffffffffff1673ffffffffffffffffffffffffffffffffffffffff1681526020019081526020016000205490507fffffffffffffffffffffffffffffffffffffffffffffffffffffffffffffffff811461080257828110156107eb576040517f08c379a00000000000000000000000000000000000000000000000000000000081526004016107e290613168565b60405180910390fd5b610801853385846107fc91906131b7565b611697565b5b61080d858585611862565b60019150509392505050565b7f6e71edae12b1b97f4d1f60370fef10105fa2faae0126114a169c64845d6126c981565b601281565b60007f0000000000000000000000000000000000000000000000000000000000000000461415610894577f0000000000000000000000000000000000000000000000000000000000000000905061089f565b61089c611b53565b90505b90565b60006108ec600860008573ffffffffffffffffffffffffffffffffffffffff1673ffffffffffffffffffffffffffffffffffffffff16815260200190815260200160002083611bfb565b905092915050565b6108fc611d52565b600073ffffffffffffffffffffffffffffffffffffffff168273ffffffffffffffffffffffffffffffffffffffff16141561096c576040517f08c379a000000000000000000000000000000000000000000000000000000000815260040161096390613237565b60405180910390fd5b61097860008383611dd0565b806004600082825461098a9190613257565b9250508190555080600160008473ffffffffffffffffffffffffffffffffffffffff1673ffffffffffffffffffffffffffffffffffffffff16815260200190815260200160002060008282546109e09190613257565b925050819055508173ffffffffffffffffffffffffffffffffffffffff16600073ffffffffffffffffffffffffffffffffffffffff167fddf252ad1be2c89b69c2b068fc378daa952ba7f163c4a11628f55a4df523b3ef83604051610a459190612a7d565b60405180910390a35050565b610a5b3382611ee1565b50565b6000600760008373ffffffffffffffffffffffffffffffffffffffff1673ffffffffffffffffffffffffffffffffffffffff16815260200190815260200160002060009054906101000a900473ffffffffffffffffffffffffffffffffffffffff169050919050565b610ad13382612047565b50565b6000610b21600860008473ffffffffffffffffffffffffffffffffffffffff1673ffffffffffffffffffffffffffffffffffffffff168152602001908152602001600020805490506121ae565b9050919050565b60016020528060005260406000206000915090505481565b60036020528060005260406000206000915090505481565b610b60611d52565b610b6a6000612201565b565b7f000000000000000000000000000000000000000000000000000000000000000081565b6000600260008473ffffffffffffffffffffffffffffffffffffffff1673ffffffffffffffffffffffffffffffffffffffff16815260200190815260200160002060003373ffffffffffffffffffffffffffffffffffffffff1673ffffffffffffffffffffffffffffffffffffffff1681526020019081526020016000205490507fffffffffffffffffffffffffffffffffffffffffffffffffffffffffffffffff8114610c925781811015610c7b576040517f08c379a0000000000000000000000000000000000000000000000000000000008152600401610c72906132f9565b60405180910390fd5b610c9183338484610c8c91906131b7565b611697565b5b610c9c8383611ee1565b505050565b60008060009054906101000a900473ffffffffffffffffffffffffffffffffffffffff16905090565b6000610cd7600983611bfb565b9050919050565b60068054610ceb906130c4565b80601f0160208091040260200160405190810160405280929190818152602001828054610d17906130c4565b8015610d645780601f10610d3957610100808354040283529160200191610d64565b820191906000526020600020905b815481529060010190602001808311610d4757829003601f168201915b505050505081565b600080600860008473ffffffffffffffffffffffffffffffffffffffff1673ffffffffffffffffffffffffffffffffffffffff16815260200190815260200160002080549050905060008114610e5857610e53600860008573ffffffffffffffffffffffffffffffffffffffff1673ffffffffffffffffffffffffffffffffffffffff168152602001908152602001600020600183610e0b91906131b7565b81548110610e1c57610e1b613319565b5b90600052602060002090600291828204019190066010029054906101000a90046fffffffffffffffffffffffffffffffff166122c5565b610e5b565b60005b915050919050565b6000610e70338484611862565b6001905092915050565b42841015610ebd576040517f08c379a0000000000000000000000000000000000000000000000000000000008152600401610eb490613394565b60405180910390fd5b7f7fffffffffffffffffffffffffffffff5d576e7357a4501ddfe92f46681b20a08160001c1115610f23576040517f08c379a0000000000000000000000000000000000000000000000000000000008152600401610f1a90613400565b60405180910390fd5b601b8360ff161480610f385750601c8360ff16145b610f77576040517f08c379a0000000000000000000000000000000000000000000000000000000008152600401610f6e9061346c565b60405180910390fd5b6000610f81610842565b7f76995fe87be88484696cfd6792aeb71e0b61f81dfa3b641e5adffa38a0d3b8e287600360008b73ffffffffffffffffffffffffffffffffffffffff1673ffffffffffffffffffffffffffffffffffffffff1681526020019081526020016000206000815480929190610ff39061348c565b919050558860405160200161100b94939291906134d5565b60405160208183030381529060405280519060200120604051602001611032929190613592565b60405160208183030381529060405280519060200120905060006001828686866040516000815260200160405260405161106f94939291906135c9565b6020604051602081039080840390855afa158015611091573d6000803e3d6000fd5b505050602060405103519050600073ffffffffffffffffffffffffffffffffffffffff168173ffffffffffffffffffffffffffffffffffffffff161415801561110557508773ffffffffffffffffffffffffffffffffffffffff168173ffffffffffffffffffffffffffffffffffffffff16145b611144576040517f08c379a000000000000000000000000000000000000000000000000000000000815260040161113b9061365a565b60405180910390fd5b61114e8888612047565b5050505050505050565b7f000000000000000000000000000000000000000000000000000000000000000081565b600061118884846106e2565b15611207578373ffffffffffffffffffffffffffffffffffffffff16638f4ffcb1338530866040518563ffffffff1660e01b81526004016111cc94939291906136cf565b600060405180830381600087803b1580156111e657600080fd5b505af11580156111fa573d6000803e3d6000fd5b505050506001905061120c565b600090505b9392505050565b42841015611256576040517f08c379a000000000000000000000000000000000000000000000000000000000815260040161124d90613767565b60405180910390fd5b7f7fffffffffffffffffffffffffffffff5d576e7357a4501ddfe92f46681b20a08160001c11156112bc576040517f08c379a00000000000000000000000000000000000000000000000000000000081526004016112b390613400565b60405180910390fd5b601b8360ff1614806112d15750601c8360ff16145b611310576040517f08c379a00000000000000000000000000000000000000000000000000000000081526004016113079061346c565b60405180910390fd5b600061131a610842565b7f6e71edae12b1b97f4d1f60370fef10105fa2faae0126114a169c64845d6126c9898989600360008e73ffffffffffffffffffffffffffffffffffffffff1673ffffffffffffffffffffffffffffffffffffffff168152602001908152602001600020600081548092919061138e9061348c565b919050558a6040516020016113a896959493929190613787565b604051602081830303815290604052805190602001206040516020016113cf929190613592565b60405160208183030381529060405280519060200120905060006001828686866040516000815260200160405260405161140c94939291906135c9565b6020604051602081039080840390855afa15801561142e573d6000803e3d6000fd5b505050602060405103519050600073ffffffffffffffffffffffffffffffffffffffff168173ffffffffffffffffffffffffffffffffffffffff16141580156114a257508873ffffffffffffffffffffffffffffffffffffffff168173ffffffffffffffffffffffffffffffffffffffff16145b6114e1576040517f08c379a00000000000000000000000000000000000000000000000000000000081526004016114d89061365a565b60405180910390fd5b6114ec898989611697565b505050505050505050565b6002602052816000526040600020602052806000526040600020600091509150505481565b7f76995fe87be88484696cfd6792aeb71e0b61f81dfa3b641e5adffa38a0d3b8e281565b611548612867565b6000806115dc600860008773ffffffffffffffffffffffffffffffffffffffff1673ffffffffffffffffffffffffffffffffffffffff1681526020019081526020016000208563ffffffff16815481106115a5576115a4613319565b5b90600052602060002090600291828204019190066010029054906101000a90046fffffffffffffffffffffffffffffffff166122cf565b9150915060405180604001604052808363ffffffff168152602001826bffffffffffffffffffffffff168152509250505092915050565b61161b611d52565b600073ffffffffffffffffffffffffffffffffffffffff168173ffffffffffffffffffffffffffffffffffffffff16141561168b576040517f08c379a00000000000000000000000000000000000000000000000000000000081526004016116829061385a565b60405180910390fd5b61169481612201565b50565b600073ffffffffffffffffffffffffffffffffffffffff168373ffffffffffffffffffffffffffffffffffffffff161415611707576040517f08c379a00000000000000000000000000000000000000000000000000000000081526004016116fe906138c6565b60405180910390fd5b600073ffffffffffffffffffffffffffffffffffffffff168273ffffffffffffffffffffffffffffffffffffffff161415611777576040517f08c379a000000000000000000000000000000000000000000000000000000000815260040161176e90613932565b60405180910390fd5b80600260008573ffffffffffffffffffffffffffffffffffffffff1673ffffffffffffffffffffffffffffffffffffffff16815260200190815260200160002060008473ffffffffffffffffffffffffffffffffffffffff1673ffffffffffffffffffffffffffffffffffffffff168152602001908152602001600020819055508173ffffffffffffffffffffffffffffffffffffffff168373ffffffffffffffffffffffffffffffffffffffff167f8c5be1e5ebec7d5bd14f71427d1e84f3dd0314c0f7b2291e5b200ac8c7c3b925836040516118559190612a7d565b60405180910390a3505050565b600073ffffffffffffffffffffffffffffffffffffffff168373ffffffffffffffffffffffffffffffffffffffff1614156118d2576040517f08c379a00000000000000000000000000000000000000000000000000000000081526004016118c99061399e565b60405180910390fd5b600073ffffffffffffffffffffffffffffffffffffffff168273ffffffffffffffffffffffffffffffffffffffff161415611942576040517f08c379a000000000000000000000000000000000000000000000000000000000815260040161193990613a0a565b60405180910390fd5b3073ffffffffffffffffffffffffffffffffffffffff168273ffffffffffffffffffffffffffffffffffffffff1614156119b1576040517f08c379a00000000000000000000000000000000000000000000000000000000081526004016119a890613a76565b60405180910390fd5b6119bc838383611dd0565b6000600160008573ffffffffffffffffffffffffffffffffffffffff1673ffffffffffffffffffffffffffffffffffffffff16815260200190815260200160002054905081811015611a43576040517f08c379a0000000000000000000000000000000000000000000000000000000008152600401611a3a90613ae2565b60405180910390fd5b8181611a4f91906131b7565b600160008673ffffffffffffffffffffffffffffffffffffffff1673ffffffffffffffffffffffffffffffffffffffff1681526020019081526020016000208190555081600160008573ffffffffffffffffffffffffffffffffffffffff1673ffffffffffffffffffffffffffffffffffffffff1681526020019081526020016000206000828254611ae19190613257565b925050819055508273ffffffffffffffffffffffffffffffffffffffff168473ffffffffffffffffffffffffffffffffffffffff167fddf252ad1be2c89b69c2b068fc378daa952ba7f163c4a11628f55a4df523b3ef84604051611b459190612a7d565b60405180910390a350505050565b60007f8b73c3c69bb8fe3d512ecc4cf759cc79239f7b179b0ffacaa9a75d522b39400f6005604051611b859190613ba1565b60405180910390206040518060400160405280600181526020017f3100000000000000000000000000000000000000000000000000000000000000815250805190602001204630604051602001611be0959493929190613bb8565b60405160208183030381529060405280519060200120905090565b6000438210611c3f576040517f08c379a0000000000000000000000000000000000000000000000000000000008152600401611c3690613c57565b60405180910390fd5b60008380549050905060005b81811015611cdf576000611c5f82846122ed565b90506000611cb0878381548110611c7957611c78613319565b5b90600052602060002090600291828204019190066010029054906101000a90046fffffffffffffffffffffffffffffffff16612313565b9050858163ffffffff161115611cc857819350611cd8565b600182611cd59190613257565b92505b5050611c4b565b60008214611d4557611d4085600184611cf891906131b7565b81548110611d0957611d08613319565b5b90600052602060002090600291828204019190066010029054906101000a90046fffffffffffffffffffffffffffffffff166122c5565b611d48565b60005b9250505092915050565b611d5a612323565b73ffffffffffffffffffffffffffffffffffffffff16611d78610ca1565b73ffffffffffffffffffffffffffffffffffffffff1614611dce576040517f08c379a0000000000000000000000000000000000000000000000000000000008152600401611dc590613cc3565b60405180910390fd5b565b600073ffffffffffffffffffffffffffffffffffffffff168373ffffffffffffffffffffffffffffffffffffffff161415611e7b57611e0d61232b565b6bffffffffffffffffffffffff1681600454611e299190613257565b1115611e6a576040517f08c379a0000000000000000000000000000000000000000000000000000000008152600401611e6190613d2f565b60405180910390fd5b611e78600961233f83612355565b50505b600073ffffffffffffffffffffffffffffffffffffffff168273ffffffffffffffffffffffffffffffffffffffff161415611ec157611ebe600961256b83612355565b50505b611edc611ecd84610a5e565b611ed684610a5e565b83612581565b505050565b6000600160008473ffffffffffffffffffffffffffffffffffffffff1673ffffffffffffffffffffffffffffffffffffffff16815260200190815260200160002054905081811015611f68576040517f08c379a0000000000000000000000000000000000000000000000000000000008152600401611f5f90613d9b565b60405180910390fd5b611f7483600084611dd0565b8181611f8091906131b7565b600160008573ffffffffffffffffffffffffffffffffffffffff1673ffffffffffffffffffffffffffffffffffffffff168152602001908152602001600020819055508160046000828254611fd591906131b7565b92505081905550600073ffffffffffffffffffffffffffffffffffffffff168373ffffffffffffffffffffffffffffffffffffffff167fddf252ad1be2c89b69c2b068fc378daa952ba7f163c4a11628f55a4df523b3ef8460405161203a9190612a7d565b60405180910390a3505050565b600061205283610a5e565b9050600061209e600160008673ffffffffffffffffffffffffffffffffffffffff1673ffffffffffffffffffffffffffffffffffffffff1681526020019081526020016000205461277a565b905082600760008673ffffffffffffffffffffffffffffffffffffffff1673ffffffffffffffffffffffffffffffffffffffff16815260200190815260200160002060006101000a81548173ffffffffffffffffffffffffffffffffffffffff021916908373ffffffffffffffffffffffffffffffffffffffff1602179055508273ffffffffffffffffffffffffffffffffffffffff168273ffffffffffffffffffffffffffffffffffffffff168573ffffffffffffffffffffffffffffffffffffffff167f3134e8a2e6d97e929a7e54011ea5485d7d196dd5f0ba4d4ef95803e8e3fc257f60405160405180910390a46121a88284836bffffffffffffffffffffffff16612581565b50505050565b600063ffffffff80168211156121f9576040517f08c379a00000000000000000000000000000000000000000000000000000000081526004016121f090613e2d565b60405180910390fd5b819050919050565b60008060009054906101000a900473ffffffffffffffffffffffffffffffffffffffff169050816000806101000a81548173ffffffffffffffffffffffffffffffffffffffff021916908373ffffffffffffffffffffffffffffffffffffffff1602179055508173ffffffffffffffffffffffffffffffffffffffff168173ffffffffffffffffffffffffffffffffffffffff167f8be0079c531659141344cd1fd0a4f28419497f9722a3daafe3b4186f6b6457e060405160405180910390a35050565b6000819050919050565b6000806122db83612313565b91506122e6836122c5565b9050915091565b600060028284186122fe9190613e7c565b82841661230b9190613257565b905092915050565b60008160801b60e01c9050919050565b600033905090565b60006bffffffffffffffffffffffff905090565b6000818361234d9190613257565b905092915050565b600080600085805490509050600081146123c7576123c28660018361237a91906131b7565b8154811061238b5761238a613319565b5b90600052602060002090600291828204019190066010029054906101000a90046fffffffffffffffffffffffffffffffff166122c5565b6123ca565b60005b6bffffffffffffffffffffffff1692506123e883858763ffffffff16565b915060008111156124e357600061244e8760018461240691906131b7565b8154811061241757612416613319565b5b90600052602060002090600291828204019190066010029054906101000a90046fffffffffffffffffffffffffffffffff16612313565b9050438163ffffffff1614156124e1576124708161246b856127d5565b612830565b8760018461247e91906131b7565b8154811061248f5761248e613319565b5b90600052602060002090600291828204019190066010026101000a8154816fffffffffffffffffffffffffffffffff02191690836fffffffffffffffffffffffffffffffff1602179055505050612563565b505b856124fe6124f0436121ae565b6124f9856127d5565b612830565b90806001815401808255809150506001900390600052602060002090600291828204019190066010029091909190916101000a8154816fffffffffffffffffffffffffffffffff02191690836fffffffffffffffffffffffffffffffff160217905550505b935093915050565b6000818361257991906131b7565b905092915050565b8173ffffffffffffffffffffffffffffffffffffffff168373ffffffffffffffffffffffffffffffffffffffff16141580156125bd5750600081115b1561277557600073ffffffffffffffffffffffffffffffffffffffff168373ffffffffffffffffffffffffffffffffffffffff161461269b57600080612644600860008773ffffffffffffffffffffffffffffffffffffffff1673ffffffffffffffffffffffffffffffffffffffff16815260200190815260200160002061256b85612355565b915091508473ffffffffffffffffffffffffffffffffffffffff167fdec2bacdd2f05b59de34da9b523dff8be42e5e38e818c82fdb0bae774387a7248383604051612690929190613ead565b60405180910390a250505b600073ffffffffffffffffffffffffffffffffffffffff168273ffffffffffffffffffffffffffffffffffffffff16146127745760008061271d600860008673ffffffffffffffffffffffffffffffffffffffff1673ffffffffffffffffffffffffffffffffffffffff16815260200190815260200160002061233f85612355565b915091508373ffffffffffffffffffffffffffffffffffffffff167fdec2bacdd2f05b59de34da9b523dff8be42e5e38e818c82fdb0bae774387a7248383604051612769929190613ead565b60405180910390a250505b5b505050565b60006bffffffffffffffffffffffff80168211156127cd576040517f08c379a00000000000000000000000000000000000000000000000000000000081526004016127c490613f48565b60405180910390fd5b819050919050565b60006bffffffffffffffffffffffff8016821115612828576040517f08c379a000000000000000000000000000000000000000000000000000000000815260040161281f90613f48565b60405180910390fd5b819050919050565b6000816bffffffffffffffffffffffff1660608463ffffffff166fffffffffffffffffffffffffffffffff16901b17905092915050565b6040518060400160405280600063ffffffff16815260200160006bffffffffffffffffffffffff1681525090565b600081519050919050565b600082825260208201905092915050565b60005b838110156128cf5780820151818401526020810190506128b4565b838111156128de576000848401525b50505050565b6000601f19601f8301169050919050565b600061290082612895565b61290a81856128a0565b935061291a8185602086016128b1565b612923816128e4565b840191505092915050565b6000602082019050818103600083015261294881846128f5565b905092915050565b6000604051905090565b600080fd5b600080fd5b600073ffffffffffffffffffffffffffffffffffffffff82169050919050565b600061298f82612964565b9050919050565b61299f81612984565b81146129aa57600080fd5b50565b6000813590506129bc81612996565b92915050565b6000819050919050565b6129d5816129c2565b81146129e057600080fd5b50565b6000813590506129f2816129cc565b92915050565b60008060408385031215612a0f57612a0e61295a565b5b6000612a1d858286016129ad565b9250506020612a2e858286016129e3565b9150509250929050565b60008115159050919050565b612a4d81612a38565b82525050565b6000602082019050612a686000830184612a44565b92915050565b612a77816129c2565b82525050565b6000602082019050612a926000830184612a6e565b92915050565b600080600060608486031215612ab157612ab061295a565b5b6000612abf868287016129ad565b9350506020612ad0868287016129ad565b9250506040612ae1868287016129e3565b9150509250925092565b6000819050919050565b612afe81612aeb565b82525050565b6000602082019050612b196000830184612af5565b92915050565b600060ff82169050919050565b612b3581612b1f565b82525050565b6000602082019050612b506000830184612b2c565b92915050565b60006bffffffffffffffffffffffff82169050919050565b612b7781612b56565b82525050565b6000602082019050612b926000830184612b6e565b92915050565b600060208284031215612bae57612bad61295a565b5b6000612bbc848285016129e3565b91505092915050565b600060208284031215612bdb57612bda61295a565b5b6000612be9848285016129ad565b91505092915050565b612bfb81612984565b82525050565b6000602082019050612c166000830184612bf2565b92915050565b600063ffffffff82169050919050565b612c3581612c1c565b82525050565b6000602082019050612c506000830184612c2c565b92915050565b612c5f81612b1f565b8114612c6a57600080fd5b50565b600081359050612c7c81612c56565b92915050565b612c8b81612aeb565b8114612c9657600080fd5b50565b600081359050612ca881612c82565b92915050565b60008060008060008060c08789031215612ccb57612cca61295a565b5b6000612cd989828a016129ad565b9650506020612cea89828a016129ad565b9550506040612cfb89828a016129e3565b9450506060612d0c89828a01612c6d565b9350506080612d1d89828a01612c99565b92505060a0612d2e89828a01612c99565b9150509295509295509295565b600080fd5b600080fd5b7f4e487b7100000000000000000000000000000000000000000000000000000000600052604160045260246000fd5b612d7d826128e4565b810181811067ffffffffffffffff82111715612d9c57612d9b612d45565b5b80604052505050565b6000612daf612950565b9050612dbb8282612d74565b919050565b600067ffffffffffffffff821115612ddb57612dda612d45565b5b612de4826128e4565b9050602081019050919050565b82818337600083830152505050565b6000612e13612e0e84612dc0565b612da5565b905082815260208101848484011115612e2f57612e2e612d40565b5b612e3a848285612df1565b509392505050565b600082601f830112612e5757612e56612d3b565b5b8135612e67848260208601612e00565b91505092915050565b600080600060608486031215612e8957612e8861295a565b5b6000612e97868287016129ad565b9350506020612ea8868287016129e3565b925050604084013567ffffffffffffffff811115612ec957612ec861295f565b5b612ed586828701612e42565b9150509250925092565b600080600080600080600060e0888a031215612efe57612efd61295a565b5b6000612f0c8a828b016129ad565b9750506020612f1d8a828b016129ad565b9650506040612f2e8a828b016129e3565b9550506060612f3f8a828b016129e3565b9450506080612f508a828b01612c6d565b93505060a0612f618a828b01612c99565b92505060c0612f728a828b01612c99565b91505092959891949750929550565b60008060408385031215612f9857612f9761295a565b5b6000612fa6858286016129ad565b9250506020612fb7858286016129ad565b9150509250929050565b612fca81612c1c565b8114612fd557600080fd5b50565b600081359050612fe781612fc1565b92915050565b600080604083850312156130045761300361295a565b5b6000613012858286016129ad565b925050602061302385828601612fd8565b9150509250929050565b61303681612c1c565b82525050565b61304581612b56565b82525050565b604082016000820151613061600085018261302d565b506020820151613074602085018261303c565b50505050565b600060408201905061308f600083018461304b565b92915050565b7f4e487b7100000000000000000000000000000000000000000000000000000000600052602260045260246000fd5b600060028204905060018216806130dc57607f821691505b602082108114156130f0576130ef613095565b5b50919050565b7f5472616e7366657220616d6f756e74206578636565647320616c6c6f77616e6360008201527f6500000000000000000000000000000000000000000000000000000000000000602082015250565b60006131526021836128a0565b915061315d826130f6565b604082019050919050565b6000602082019050818103600083015261318181613145565b9050919050565b7f4e487b7100000000000000000000000000000000000000000000000000000000600052601160045260246000fd5b60006131c2826129c2565b91506131cd836129c2565b9250828210156131e0576131df613188565b5b828203905092915050565b7f4d696e7420746f20746865207a65726f20616464726573730000000000000000600082015250565b60006132216018836128a0565b915061322c826131eb565b602082019050919050565b6000602082019050818103600083015261325081613214565b9050919050565b6000613262826129c2565b915061326d836129c2565b9250827fffffffffffffffffffffffffffffffffffffffffffffffffffffffffffffffff038211156132a2576132a1613188565b5b828201905092915050565b7f4275726e20616d6f756e74206578636565647320616c6c6f77616e6365000000600082015250565b60006132e3601d836128a0565b91506132ee826132ad565b602082019050919050565b60006020820190508181036000830152613312816132d6565b9050919050565b7f4e487b7100000000000000000000000000000000000000000000000000000000600052603260045260246000fd5b7f44656c65676174696f6e20657870697265640000000000000000000000000000600082015250565b600061337e6012836128a0565b915061338982613348565b602082019050919050565b600060208201905081810360008301526133ad81613371565b9050919050565b7f496e76616c6964207369676e6174757265202773272076616c75650000000000600082015250565b60006133ea601b836128a0565b91506133f5826133b4565b602082019050919050565b60006020820190508181036000830152613419816133dd565b9050919050565b7f496e76616c6964207369676e6174757265202776272076616c75650000000000600082015250565b6000613456601b836128a0565b915061346182613420565b602082019050919050565b6000602082019050818103600083015261348581613449565b9050919050565b6000613497826129c2565b91507fffffffffffffffffffffffffffffffffffffffffffffffffffffffffffffffff8214156134ca576134c9613188565b5b600182019050919050565b60006080820190506134ea6000830187612af5565b6134f76020830186612bf2565b6135046040830185612a6e565b6135116060830184612a6e565b95945050505050565b600081905092915050565b7f1901000000000000000000000000000000000000000000000000000000000000600082015250565b600061355b60028361351a565b915061356682613525565b600282019050919050565b6000819050919050565b61358c61358782612aeb565b613571565b82525050565b600061359d8261354e565b91506135a9828561357b565b6020820191506135b9828461357b565b6020820191508190509392505050565b60006080820190506135de6000830187612af5565b6135eb6020830186612b2c565b6135f86040830185612af5565b6136056060830184612af5565b95945050505050565b7f496e76616c6964207369676e6174757265000000000000000000000000000000600082015250565b60006136446011836128a0565b915061364f8261360e565b602082019050919050565b6000602082019050818103600083015261367381613637565b9050919050565b600081519050919050565b600082825260208201905092915050565b60006136a18261367a565b6136ab8185613685565b93506136bb8185602086016128b1565b6136c4816128e4565b840191505092915050565b60006080820190506136e46000830187612bf2565b6136f16020830186612a6e565b6136fe6040830185612bf2565b81810360608301526137108184613696565b905095945050505050565b7f5065726d697373696f6e20657870697265640000000000000000000000000000600082015250565b60006137516012836128a0565b915061375c8261371b565b602082019050919050565b6000602082019050818103600083015261378081613744565b9050919050565b600060c08201905061379c6000830189612af5565b6137a96020830188612bf2565b6137b66040830187612bf2565b6137c36060830186612a6e565b6137d06080830185612a6e565b6137dd60a0830184612a6e565b979650505050505050565b7f4f776e61626c653a206e6577206f776e657220697320746865207a65726f206160008201527f6464726573730000000000000000000000000000000000000000000000000000602082015250565b60006138446026836128a0565b915061384f826137e8565b604082019050919050565b6000602082019050818103600083015261387381613837565b9050919050565b7f417070726f76652066726f6d20746865207a65726f2061646472657373000000600082015250565b60006138b0601d836128a0565b91506138bb8261387a565b602082019050919050565b600060208201905081810360008301526138df816138a3565b9050919050565b7f417070726f766520746f20746865207a65726f20616464726573730000000000600082015250565b600061391c601b836128a0565b9150613927826138e6565b602082019050919050565b6000602082019050818103600083015261394b8161390f565b9050919050565b7f5472616e736665722066726f6d20746865207a65726f20616464726573730000600082015250565b6000613988601e836128a0565b915061399382613952565b602082019050919050565b600060208201905081810360008301526139b78161397b565b9050919050565b7f5472616e7366657220746f20746865207a65726f206164647265737300000000600082015250565b60006139f4601c836128a0565b91506139ff826139be565b602082019050919050565b60006020820190508181036000830152613a23816139e7565b9050919050565b7f5472616e7366657220746f2074686520746f6b656e2061646472657373000000600082015250565b6000613a60601d836128a0565b9150613a6b82613a2a565b602082019050919050565b60006020820190508181036000830152613a8f81613a53565b9050919050565b7f5472616e7366657220616d6f756e7420657863656564732062616c616e636500600082015250565b6000613acc601f836128a0565b9150613ad782613a96565b602082019050919050565b60006020820190508181036000830152613afb81613abf565b9050919050565b600081905092915050565b60008190508160005260206000209050919050565b60008154613b2f816130c4565b613b398186613b02565b94506001821660008114613b545760018114613b6557613b98565b60ff19831686528186019350613b98565b613b6e85613b0d565b60005b83811015613b9057815481890152600182019150602081019050613b71565b838801955050505b50505092915050565b6000613bad8284613b22565b915081905092915050565b600060a082019050613bcd6000830188612af5565b613bda6020830187612af5565b613be76040830186612af5565b613bf46060830185612a6e565b613c016080830184612bf2565b9695505050505050565b7f426c6f636b206e6f74207965742064657465726d696e65640000000000000000600082015250565b6000613c416018836128a0565b9150613c4c82613c0b565b602082019050919050565b60006020820190508181036000830152613c7081613c34565b9050919050565b7f4f776e61626c653a2063616c6c6572206973206e6f7420746865206f776e6572600082015250565b6000613cad6020836128a0565b9150613cb882613c77565b602082019050919050565b60006020820190508181036000830152613cdc81613ca0565b9050919050565b7f4d6178696d756d20746f74616c20737570706c79206578636565646564000000600082015250565b6000613d19601d836128a0565b9150613d2482613ce3565b602082019050919050565b60006020820190508181036000830152613d4881613d0c565b9050919050565b7f4275726e20616d6f756e7420657863656564732062616c616e63650000000000600082015250565b6000613d85601b836128a0565b9150613d9082613d4f565b602082019050919050565b60006020820190508181036000830152613db481613d78565b9050919050565b7f53616665436173743a2076616c756520646f65736e27742066697420696e203360008201527f3220626974730000000000000000000000000000000000000000000000000000602082015250565b6000613e176026836128a0565b9150613e2282613dbb565b604082019050919050565b60006020820190508181036000830152613e4681613e0a565b9050919050565b7f4e487b7100000000000000000000000000000000000000000000000000000000600052601260045260246000fd5b6000613e87826129c2565b9150613e92836129c2565b925082613ea257613ea1613e4d565b5b828204905092915050565b6000604082019050613ec26000830185612a6e565b613ecf6020830184612a6e565b9392505050565b7f53616665436173743a2076616c756520646f65736e27742066697420696e203960008201527f3620626974730000000000000000000000000000000000000000000000000000602082015250565b6000613f326026836128a0565b9150613f3d82613ed6565b604082019050919050565b60006020820190508181036000830152613f6181613f25565b905091905056fea264697066735822122080c4ea65fe927ddc01a672c8707e7276fbf471d1a5c285c9638eb1806c347c3764736f6c63430008090033",
  "devdoc": {
    "kind": "dev",
    "methods": {
      "approve(address,uint256)": {
        "details": "If the `amount` is set to `type(uint256).max` then      `transferFrom` and `burnFrom` will not reduce an allowance.      Beware that changing an allowance with this method brings the risk      that someone may use both the old and the new allowance by      unfortunate transaction ordering. One possible solution to mitigate      this race condition is to first reduce the spender's allowance to 0      and set the desired value afterwards:      https://github.com/ethereum/EIPs/issues/20#issuecomment-263524729",
        "returns": {
          "_0": "True if the operation succeeded."
        }
      },
      "approveAndCall(address,uint256,bytes)": {
        "details": "If the `amount` is set to `type(uint256).max` then      `transferFrom` and `burnFrom` will not reduce an allowance.",
        "returns": {
          "_0": "True if both approval and `receiveApproval` calls succeeded."
        }
      },
      "burn(uint256)": {
        "details": "Requirements:       - the caller must have a balance of at least `amount`."
      },
      "burnFrom(address,uint256)": {
        "details": "Requirements:      - `account` must have a balance of at least `amount`,      - the caller must have allowance for `account`'s tokens of at least        `amount`."
      },
      "delegate(address)": {
        "params": {
          "delegatee": "The address to delegate votes to"
        }
      },
      "delegateBySig(address,address,uint256,uint8,bytes32,bytes32)": {
        "params": {
          "deadline": "The time at which to expire the signature",
          "delegatee": "The address to delegate votes to",
          "r": "Half of the ECDSA signature pair",
          "s": "Half of the ECDSA signature pair",
          "v": "The recovery byte of the signature"
        }
      },
      "getPastTotalSupply(uint256)": {
        "details": "`blockNumber` must have been already mined",
        "params": {
          "blockNumber": "The block number to get the total supply at"
        }
      },
      "getPastVotes(address,uint256)": {
        "details": "Block number must be a finalized block or else this function will      revert to prevent misinformation.",
        "params": {
          "account": "The address of the account to check",
          "blockNumber": "The block number to get the vote balance at"
        },
        "returns": {
          "_0": "The number of votes the account had as of the given block"
        }
      },
      "getVotes(address)": {
        "params": {
          "account": "The address to get votes balance"
        },
        "returns": {
          "_0": "The number of current votes for `account`"
        }
      },
      "mint(address,uint256)": {
        "details": "Requirements:      - `recipient` cannot be the zero address."
      },
      "owner()": {
        "details": "Returns the address of the current owner."
      },
      "permit(address,address,uint256,uint256,uint8,bytes32,bytes32)": {
        "details": "The deadline argument can be set to `type(uint256).max to create         permits that effectively never expire.  If the `amount` is set         to `type(uint256).max` then `transferFrom` and `burnFrom` will         not reduce an allowance."
      },
      "renounceOwnership()": {
        "details": "Leaves the contract without owner. It will not be possible to call `onlyOwner` functions anymore. Can only be called by the current owner. NOTE: Renouncing ownership will leave the contract without an owner, thereby removing any functionality that is only available to the owner."
      },
      "transfer(address,uint256)": {
        "details": "Requirements:       - `recipient` cannot be the zero address,       - the caller must have a balance of at least `amount`.",
        "returns": {
          "_0": "True if the operation succeeded, reverts otherwise."
        }
      },
      "transferFrom(address,address,uint256)": {
        "details": "Requirements:      - `spender` and `recipient` cannot be the zero address,      - `spender` must have a balance of at least `amount`,      - the caller must have allowance for `spender`'s tokens of at least        `amount`.",
        "returns": {
          "_0": "True if the operation succeeded, reverts otherwise."
        }
      },
      "transferOwnership(address)": {
        "details": "Transfers ownership of the contract to a new account (`newOwner`). Can only be called by the current owner."
      }
    },
    "title": "UnderwriterToken",
    "version": 1
  },
  "userdoc": {
    "events": {
      "DelegateChanged(address,address,address)": {
        "notice": "Emitted when an account changes their delegate."
      },
      "DelegateVotesChanged(address,uint256,uint256)": {
        "notice": "Emitted when a balance or delegate change results in changes         to an account's voting power."
      }
    },
    "kind": "user",
    "methods": {
      "DELEGATION_TYPEHASH()": {
        "notice": "The EIP-712 typehash for the delegation struct used by         `delegateBySig`."
      },
      "DOMAIN_SEPARATOR()": {
        "notice": "Returns hash of EIP712 Domain struct with the token name as         a signing domain and token contract as a verifying contract.         Used to construct EIP2612 signature provided to `permit`         function."
      },
      "PERMIT_TYPEHASH()": {
        "notice": "Returns EIP2612 Permit message hash. Used to construct EIP2612         signature provided to `permit` function."
      },
      "allowance(address,address)": {
        "notice": "The remaining number of tokens that spender will be         allowed to spend on behalf of owner through `transferFrom` and         `burnFrom`. This is zero by default."
      },
      "approve(address,uint256)": {
        "notice": "Sets `amount` as the allowance of `spender` over the caller's         tokens."
      },
      "approveAndCall(address,uint256,bytes)": {
        "notice": "Calls `receiveApproval` function on spender previously approving         the spender to withdraw from the caller multiple times, up to         the `amount` amount. If this function is called again, it         overwrites the current allowance with `amount`. Reverts if the         approval reverted or if `receiveApproval` call on the spender         reverted."
      },
      "balanceOf(address)": {
        "notice": "The amount of tokens owned by the given account."
      },
      "burn(uint256)": {
        "notice": "Destroys `amount` tokens from the caller."
      },
      "burnFrom(address,uint256)": {
        "notice": "Destroys `amount` of tokens from `account` using the allowance         mechanism. `amount` is then deducted from the caller's allowance         unless the allowance was made for `type(uint256).max`."
      },
      "decimals()": {
        "notice": "The decimals places of the token."
      },
      "delegate(address)": {
        "notice": "Delegate votes from `msg.sender` to `delegatee`."
      },
      "delegateBySig(address,address,uint256,uint8,bytes32,bytes32)": {
        "notice": "Delegates votes from signatory to `delegatee`"
      },
      "delegates(address)": {
        "notice": "Get the address `account` is currently delegating to."
      },
      "getPastTotalSupply(uint256)": {
        "notice": "Retrieve the `totalSupply` at the end of `blockNumber`.         Note, this value is the sum of all balances, but it is NOT the         sum of all the delegated votes!"
      },
      "getPastVotes(address,uint256)": {
        "notice": "Determine the prior number of votes for an account as of         a block number."
      },
      "getVotes(address)": {
        "notice": "Gets the current votes balance for `account`."
      },
      "mint(address,uint256)": {
        "notice": "Creates `amount` tokens and assigns them to `account`,         increasing the total supply."
      },
      "name()": {
        "notice": "The name of the token."
      },
      "nonce(address)": {
        "notice": "Returns the current nonce for EIP2612 permission for the         provided token owner for a replay protection. Used to construct         EIP2612 signature provided to `permit` function."
      },
      "numCheckpoints(address)": {
        "notice": "Get number of checkpoints for `account`."
      },
      "permit(address,address,uint256,uint256,uint8,bytes32,bytes32)": {
        "notice": "EIP2612 approval made with secp256k1 signature.         Users can authorize a transfer of their tokens with a signature         conforming EIP712 standard, rather than an on-chain transaction         from their address. Anyone can submit this signature on the         user's behalf by calling the permit function, paying gas fees,         and possibly performing other actions in the same transaction."
      },
      "symbol()": {
        "notice": "The symbol of the token."
      },
      "totalSupply()": {
        "notice": "The amount of tokens in existence."
      },
      "transfer(address,uint256)": {
        "notice": "Moves `amount` tokens from the caller's account to `recipient`."
      },
      "transferFrom(address,address,uint256)": {
        "notice": "Moves `amount` tokens from `spender` to `recipient` using the         allowance mechanism. `amount` is then deducted from the caller's         allowance unless the allowance was made for `type(uint256).max`."
      }
    },
    "notice": "Underwriter tokens represent an ownership share in the underlying         collateral of the asset-specific pool. Underwriter tokens are minted         when a user deposits ERC20 tokens into asset-specific pool and they         are burned when a user exits the position. Underwriter tokens         natively support meta transactions. Users can authorize a transfer         of their underwriter tokens with a signature conforming EIP712         standard instead of an on-chain transaction from their address.         Anyone can submit this signature on the user's behalf by calling the         permit function, as specified in EIP2612 standard, paying gas fees,         and possibly performing other actions in the same transaction.",
    "version": 1
  },
  "storageLayout": {
    "storage": [
      {
        "astId": 488,
        "contract": "contracts/UnderwriterToken.sol:UnderwriterToken",
        "label": "_owner",
        "offset": 0,
        "slot": "0",
        "type": "t_address"
      },
      {
        "astId": 3955,
        "contract": "contracts/UnderwriterToken.sol:UnderwriterToken",
        "label": "balanceOf",
        "offset": 0,
        "slot": "1",
        "type": "t_mapping(t_address,t_uint256)"
      },
      {
        "astId": 3963,
        "contract": "contracts/UnderwriterToken.sol:UnderwriterToken",
        "label": "allowance",
        "offset": 0,
        "slot": "2",
        "type": "t_mapping(t_address,t_mapping(t_address,t_uint256))"
      },
      {
        "astId": 3969,
        "contract": "contracts/UnderwriterToken.sol:UnderwriterToken",
        "label": "nonce",
        "offset": 0,
        "slot": "3",
        "type": "t_mapping(t_address,t_uint256)"
      },
      {
        "astId": 3984,
        "contract": "contracts/UnderwriterToken.sol:UnderwriterToken",
        "label": "totalSupply",
        "offset": 0,
        "slot": "4",
        "type": "t_uint256"
      },
      {
        "astId": 3988,
        "contract": "contracts/UnderwriterToken.sol:UnderwriterToken",
        "label": "name",
        "offset": 0,
        "slot": "5",
        "type": "t_string_storage"
      },
      {
        "astId": 3992,
        "contract": "contracts/UnderwriterToken.sol:UnderwriterToken",
        "label": "symbol",
        "offset": 0,
        "slot": "6",
        "type": "t_string_storage"
      },
      {
        "astId": 4788,
        "contract": "contracts/UnderwriterToken.sol:UnderwriterToken",
        "label": "_delegates",
        "offset": 0,
        "slot": "7",
        "type": "t_mapping(t_address,t_address)"
      },
      {
        "astId": 4793,
        "contract": "contracts/UnderwriterToken.sol:UnderwriterToken",
        "label": "_checkpoints",
        "offset": 0,
        "slot": "8",
        "type": "t_mapping(t_address,t_array(t_uint128)dyn_storage)"
      },
      {
        "astId": 4796,
        "contract": "contracts/UnderwriterToken.sol:UnderwriterToken",
        "label": "_totalSupplyCheckpoints",
        "offset": 0,
        "slot": "9",
        "type": "t_array(t_uint128)dyn_storage"
      },
      {
        "astId": 4800,
        "contract": "contracts/UnderwriterToken.sol:UnderwriterToken",
        "label": "__gap",
        "offset": 0,
        "slot": "10",
        "type": "t_array(t_uint256)47_storage"
      }
    ],
    "types": {
      "t_address": {
        "encoding": "inplace",
        "label": "address",
        "numberOfBytes": "20"
      },
      "t_array(t_uint128)dyn_storage": {
        "base": "t_uint128",
        "encoding": "dynamic_array",
        "label": "uint128[]",
        "numberOfBytes": "32"
      },
      "t_array(t_uint256)47_storage": {
        "base": "t_uint256",
        "encoding": "inplace",
        "label": "uint256[47]",
        "numberOfBytes": "1504"
      },
      "t_mapping(t_address,t_address)": {
        "encoding": "mapping",
        "key": "t_address",
        "label": "mapping(address => address)",
        "numberOfBytes": "32",
        "value": "t_address"
      },
      "t_mapping(t_address,t_array(t_uint128)dyn_storage)": {
        "encoding": "mapping",
        "key": "t_address",
        "label": "mapping(address => uint128[])",
        "numberOfBytes": "32",
        "value": "t_array(t_uint128)dyn_storage"
      },
      "t_mapping(t_address,t_mapping(t_address,t_uint256))": {
        "encoding": "mapping",
        "key": "t_address",
        "label": "mapping(address => mapping(address => uint256))",
        "numberOfBytes": "32",
        "value": "t_mapping(t_address,t_uint256)"
      },
      "t_mapping(t_address,t_uint256)": {
        "encoding": "mapping",
        "key": "t_address",
        "label": "mapping(address => uint256)",
        "numberOfBytes": "32",
        "value": "t_uint256"
      },
      "t_string_storage": {
        "encoding": "bytes",
        "label": "string",
        "numberOfBytes": "32"
      },
      "t_uint128": {
        "encoding": "inplace",
        "label": "uint128",
        "numberOfBytes": "16"
      },
      "t_uint256": {
        "encoding": "inplace",
        "label": "uint256",
        "numberOfBytes": "32"
      }
    }
  }
}